S0190000496E74657272757074735F54696D6572732E73726563F8
S11300000C944C000C946B000C946B000C946B00DF
S11300100C946B000C946B000C946B000C946B00B0
S11300200C946B000C946B000C946B000C94910B6F
S11300300C946B000C948B010C946B000C94B00129
S11300400C945D040C946B000C946B000C946B008A
S11300500C9424090C94370B0C946B000C946B00D7
S11300600C946B000C946B000C946B000C946B0060
S11300700C944F090C94600B0C946B000C946B0063
S11300800C9405010C946B000C946B006364696E12
S11300906F70737578585B0011241FBECFEFD0E4E6
S11300A0DEBFCDBF13E0A0E0B1E0E8E0FAE200E09B
S11300B00BBF02C007900D92AA34B107D9F723E011
S11300C0AAE4B3E001C01D92A43DB207E1F70E9487
S11300D0D5010C9402150C94000080E881B981B11B
S11300E091B1892B806181B980E28AB908951F9307
S11300F0CF93DF93182FEB0177FF07C08CE291E0D9
S1130100DF91CF911F910C947F0ECB0164E670E0D8
S11301100E94740CC81BD90BDF93CF9327E431E002
S11301203F932F930E946D0E0F900F900F900F909E
S1130130123519F0113409F05EC0209711F41498A7
S113014001C0149AD0932B01C0932A01193521F4CC
S1130150209731F4179A05C0113409F04FC0F8CF35
S11301601798D0932701C0932601173421F42097C0
S113017031F45D9A0BC0113409F043C0F8CF5D9897
S1130180C13A8FE0D80714F0C0EADFE0D093290128
S1130190C09328011C161D06A4F58BE49CE4BE0143
S11301A00E94600C660F771F70938700609386002F
S11301B08091860090918700969587959093890009
S11301C08093880080918800909189002091290172
S11301D02F93209128012F939F938F9388E691E08A
S11301E09F938F930E946D0E0F900F900F900F901E
S11301F00F900F9006C0193509F4AACF173409F4EB
S1130200B6CFDF91CF911F9108951F920F920FB631
S11302100F9211240BB60F922F933F934F935F933A
S11302206F937F938F939F93AF93BF93EF93FF93BA
S11302306091790370917A0380917B0390917C03A0
S11302406F5F7F4F8F4F9F4F6093790370937A0353
S113025080937B0390937C032091260130912701A6
S113026040E050E00E94880C672B682B692B09F052
S11302703FC082B1805882B980916703909168032E
S1130280A0916903B0916A030196A11DB11D8093E9
S1130290670390936803A0936903B0936A03109271
S11302A08203109281038091830390918403A0912F
S11302B08503B09186032091810330918203233317
S11302C0310574F480918103909182030196909397
S11302D082038093810380E89BE6A0E0B0E0EBCF4B
S11302E08093830390938403A0938503B093860340
S11302F0FF91EF91BF91AF919F918F917F916F91FA
S11303005F914F913F912F910F900BBE0F900FBEB5
S11303100F901F9018951F920F920FB60F921124F1
S11303208F939F93AF93BF9380916B0390916C03D2
S1130330A0916D03B0916E030196A11DB11D809330
S11303406B0390936C03A0936D03B0936E03BF9102
S1130350AF919F918F910F900FBE0F901F901895A2
S11303601F920F920FB60F9211248F939F93AF9306
S1130370BF9380916B0390916C03A0916D03B09136
S11303806E030196A11DB11D80936B0390936C03C2
S1130390A0936D03B0936E03BF91AF919F918F9122
S11303A00F900FBE0F901F9018950E9415070E9482
S11303B06D000E94CC030E9414027894C0E18091E5
S11303C07303909174030197D1F482B18C2782B99D
S11303D080916F0390917003A0917103B0917203A7
S11303E00196A11DB11D80936F0390937003A09398
S11303F07103B093720310927403109273030E94FA
S1130400FE0A0E947E03DBCF82E00E94280781114E
S113041003C00E94FE0AF8CF0895462FBC0182E073
S11304200E94340B0C94040240E855E260E070E052
S113043082E00E94430A40E269E873E082E00E949D
S1130440210968E170E085E991E00E940D026BE109
S113045070E08EEA91E00C940D020F931F93CF93FA
S1130460DF93CDB7DEB7A4970FB6F894DEBF0FBE07
S1130470CDBF9E012F5D3F4F3F932F932D5F3F4F85
S11304803F932F93215031093F932F932AEC31E06E
S11304903F932F939F938F930E94DB0E8AA18F9398
S11304A089A18F938CA11F928F938BA11F928F93FD
S11304B083ED91E09F938F938E010F5F1F4F1F93E6
S11304C00F930E94AC0EBC01C8010E940D028CA1C6
S11304D09FE9980F0FB6F894DEBF0FBECDBF9A31D7
S11304E010F490E201C090E0891B8CA3873469F07A
S11304F018F4813451F004C0823539F0893529F07B
S113050067E170E085EE91E0E6C09BA19A3509F4BD
S1130510A4C028F4903589F0943551F0D8C09437AC
S113052039F09A3709F499C0903709F0D0C005C062
S113053069A17AA10E947700D0C0873409F46AC007
S113054008F046C0813409F083C0809172038F9310
S1130550809171038F93809170038F9380916F03C7
S11305608F938DEF91E09F938F931F930F930E942E
S1130570AC0EBC01C8010E940D0280916A038F93E6
S1130580809169038F93809168038F9380916703AF
S11305908F938DE192E09F938F931F930F930E940B
S11305A0AC0EBC01C8010E940D0280916E038F93B2
S11305B080916D038F9380916C038F9380916B0373
S11305C08F938DE092E09F938F931F930F9334C08A
S11305D0823589F08935E1F580916A038F938091A2
S11305E069038F93809168038F93809167038F933E
S11305F08DE192E01DC0809172038F93809171030D
S11306008F93809170038F9380916F038F938DEFFD
S113061091E00EC080916E038F9380916D038F9350
S113062080916C038F9380916B038F938DE092E0A4
S11306309F938F931F930F930E94AC0EBC01C8012C
S11306400E940D020FB6F894DEBF0FBECDBF45C0A9
S11306506BE170E08DE292E03EC0873409F198F4DA
S1130660813481F510926703109268031092690334
S113067010926A0310926B0310926C0310926D0334
S113068010926E0316C08235A1F08935D9F4109208
S11306906703109268031092690310926A031DC0E5
S11306A010926B0310926C0310926D0310926E0300
S11306B014C010926F031092700310927103109281
S11306C072030BC06BE170E089E492E004C06BE15B
S11306D070E085E692E00E940D026BE170E08EEA24
S11306E091E00E940D02A4960FB6F894DEBF0FBEEF
S11306F0CDBFDF91CF911F910F910895CF93DF93D9
S1130700CDB7DEB7A0970FB6F894DEBF0FBECDBF4E
S113071082E00E9418079091A90320917D033091F3
S11307207E038917D9F0A1E0B0E0AC0FBD1FA20F82
S1130730B31FE92FF0E0E757FC4F80818C932F5FC4
S11307403F4F30937E0320937D039F3119F4109221
S1130750A903DECF9F5F9093A903DACF211531055A
S113076091F02130310559F0E1E0F0E0EC0FFD1F8C
S1130770E20FF31F1082CE0101960E942D02109207
S11307807E0310927D03A0960FB6F894DEBF0FBED1
S1130790CDBFDF91CF910895CF93DF93C2E0C4BD65
S11307A084E085BD81E892E00E947F0E8DE487BDE0
S11307B0C0936E0010927503109276031092770323
S11307C01092780380E880939000E1E9F0E088E0FB
S11307D08083808183608083E8E9F0E081E19AE7A7
S11307E091838083808191811F9224E62F939F932C
S11307F08F938AEB92E09F938F930E946D0EC09328
S113080071001092790310927A0310927B03109274
S11308107C0382E880938000E1E8F0E088E1808353
S1130820808185608083809129018F938091280144
S11308308F9381EF92E09F938F930E946D0E60914E
S11308402801709129018AE49CE40E94600C660FDF
S1130850771FE6E8F0E0718360838081918196954B
S11308608795C8E8D0E099838883888199819F938C
S11308708F9382E093E09F938F930E946D0E888103
S11308809981209129012F93209128012F939F93DF
S11308908F9383E193E09F938F930E946D0E83E087
S11308A080936F008DB79EB744960FB6F8949EBFA1
S11308B00FBE8DBFDF91CF9108951F920F920FB697
S11308C00F9211240BB60F922F933F934F935F9384
S11308D06F937F938F939F93AF93BF93EF93FF9304
S11308E060917503709176038091770390917803FA
S11308F06F5F7F4F8F4F9F4F6093750370937603A5
S1130900809377039093780320912A0130912B01EF
S113091040E050E00E94880C672B682B692B31F46F
S113092081E090E09093740380937303FF91EF91BF
S1130930BF91AF919F918F917F916F915F914F91F3
S11309403F912F910F900BBE0F900FBE0F901F90F1
S1130950189580E090E0089581E090E06F9364E062
S11309606A95F1F76F910197C9F708950F931F9353
S1130970CF93DF9317B13D982898299AC0E0D0E02F
S11309800E94AC042A9A0E94AC0406B12A980E94E0
S1130990AC042A9A0E94AC042A98249605FF10C03D
S11309A09E0140E050E080914E0390914F03A0914E
S11309B05003B0915103281739074A075B0700F326
S11309C09E0140E050E080914E0390914F03A0912E
S11309D05003B0915103281739074A075B0728F0E1
S11309E082E390E0A0E0B0E004C080E395E7A0E0FB
S11309F0B0E080934E0390934F03A0935003B093C1
S1130A00510317B9DF91CF911F910F91089528B128
S1130A1090E08F709070880F991F880F991F237C26
S1130A20282B28B92A9A0E94AC042A980E94AC0464
S1130A300895A2E0B0E0EFE1F5E00C94C20C182FA9
S1130A404A8369830E9494050E94B604F7B008B1F2
S1130A50299869814A81662311F0289A01C028984F
S1130A6087B18C6387B9413029F0812F82958F70CB
S1130A700E940705812F8F700E940705F7B808B9F7
S1130A802296E5E00C94DE0C60E042E00E94190539
S1130A90089561E042E00E941905089560E041E094
S1130AA00E94190508953D98459A80E395E7A0E0D2
S1130AB0B0E080934E0390934F03A0935003B09300
S1130AC05103209A219A229A8EE190E00E94D90B38
S1130AD083E00E944E0586E090E00E94D90B83E0FB
S1130AE00E944E0582E090E00E94D90B83E00E94B0
S1130AF04E0582E090E00E94D90B82E00E944E05F0
S1130B0082E090E00E94D90B88E20E94440588E0CC
S1130B100E94440581E00E94440586E00E94440549
S1130B208CE00E944405089580915203882329F49F
S1130B3081E0809352030E9453050895A5E0B0E03C
S1130B40E4EAF5E00C94C40C182F80E8898380EC67
S1130B508A8384E98B8384ED8C83FE01E60FF11D87
S1130B608181810F6D830E94440510934D036D8133
S1130B7060934C032596E3E00C94E00CA0E0B0E015
S1130B80E4ECF5E00C94BF0CD82E80914A039091CC
S1130B904B03009709F4FAC02D2D2A3009F443C001
S1130BA02830C9F480914D03815080934D038F3FC9
S1130BB051F480914C03815080934C038091010146
S1130BC0815080934D0380914C038F3F09F0D8C02E
S1130BD010924C03D3C08D2D0E94490580914C0383
S1130BE08823B9F090E001974091010150E0849F7F
S1130BF09001859F300D949F300D112480914D03F9
S1130C00E0914A03F0914B03E20FF31FE80FF11D4B
S1130C10D08280914D038F5F80934D0390910101A9
S1130C20891709F0B3C040914C03242F30E0809120
S1130C30000190E001972817390709F09CC0C0E033
S1130C40D0E041C080E06C2F0E949E05CC248E0130
S1130C500F5F1F4F33C0EC2CFF2430E0C29FC00154
S1130C60C39F900DD29F900D1124E0914A03F091FF
S1130C704B03EE0DFF1DE80FF91F80810E9449050B
S1130C8080914A0390914B032091010130E0C29F6F
S1130C90F001C39FF00DD29FF00D11248E0D9F1D06
S1130CA0E80FF91F029FD001039FB00D129FB00DF2
S1130CB01124A80FB91F8C918083C3942091010142
S1130CC0C21648F2E80160910001862F90E0029775
S1130CD0C817D9070CF4B6CF6230E0F1625080E057
S1130CE00E949E0500E010E231C0C02FD0E0809148
S1130CF0000190E0029750E0849F9001859F300DA1
S1130D00949F300D1124E0914A03F0914B03EC0FB2
S1130D10FD1FE20FF31F80810E94490580910001AD
S1130D2090E002974091010150E0849F9001859FDB
S1130D30300D949F300D1124E0914A03F0914B0340
S1130D40EC0FFD1FE20FF31F10830F5F40910101B1
S1130D50041758F260910001615080E00E949E05E2
S1130D6010E004C080E20E9449051F5F80910101E8
S1130D701817C0F303C04F5F40934C0310924D0308
S1130D8080914D0360914C030E949E052D2D3327C5
S1130D9027FD3095C901CDB7DEB7E8E00C94DB0C34
S1130DA080914A0390914B03009711F00E94930D98
S1130DB02091000130E0215030408091010190E009
S1130DC0AC01249FC001259F900D349F900D1124E8
S1130DD00E94FB0C90934B0380934A03009721F1EC
S1130DE0A0E0B0E208C0E0914A03F0914B03E20FA7
S1130DF0F31FB083AF5F2A2F30E08091000190E0B1
S1130E0001976091010170E0869FA001879F500DBA
S1130E10969F500D1124241735072CF38EEB95E083
S1130E2069EA74E00E94220E08950E94D006089593
S1130E30282F30E0F901EE0FFF1F43E0220F331F8C
S1130E404A95E1F7E20FF31FEE5FFE4F82810895AA
S1130E50282F30E0F901EE0FFF1F73E0220F331F3C
S1130E607A95E1F7E20FF31FEE5FFE4F4181282FE1
S1130E7030E0F901EE0FFF1F53E0220F331F5A95A4
S1130E80E1F7E20FF31FEE5FFE4F81E09381491318
S1130E9080E00895282F30E0F901EE0FFF1FB3E042
S1130EA0220F331FBA95E1F7E20FF31FEE5FFE4FF7
S1130EB0408551854115510509F452C0282F30E071
S1130EC0F901EE0FFF1F73E0220F331F7A95E1F74C
S1130ED0E20FF31FEE5FFE4F7281282F30E0F9011D
S1130EE0EE0FFF1FB3E0220F331FBA95E1F7E20FB5
S1130EF0F31FEE5FFE4F9481791790F5282F30E0B1
S1130F00F901EE0FFF1F73E0220F331F7A95E1F70B
S1130F10E20FF31FEE5FFE4F9281490F511DFA015C
S1130F206083282F30E0F901EE0FFF1F53E0220FFA
S1130F30331F5A95E1F7E20FF31FEE5FFE4F9281E4
S1130F409F5F282F30E0F901EE0FFF1FB3E0220F5F
S1130F50331FBA95E1F7E20FF31FEE5FFE4F928362
S1130F60282F30E0F901EE0FFF1F73E0220F331F2B
S1130F707A95E1F7E20FF31FEE5FFE4F4281282FCF
S1130F8030E0F901EE0FFF1F53E0220F331F5A9593
S1130F90E1F7E20FF31FEE5FFE4F9481491701F56D
S1130FA0282F30E0F901EE0FFF1F93E0220F331FCB
S1130FB09A95E1F7E20FF31FEE5FFE4F95819923B7
S1130FC079F0282F30E0F901EE0FFF1FB3E0220F74
S1130FD0331FBA95E1F7E20FF31FEE5FFE4F128263
S1130FE008950F931F93182F823009F475C0882336
S1130FF019F4E1ECF0E002C0E9ECF0E080818F77D5
S11310008083812F90E0FC01EE0FFF1F03E0880F27
S1131010991F0A95E1F7E80FF91FEE5FFE4F8085EF
S113102091850097A9F1212F30E0F901EE0FFF1F00
S1131030A3E0220F331FAA95E1F7E20FF31FEE5F3F
S1131040FE4F9281212F30E0F901EE0FFF1F63E084
S1131050220F331F6A95E1F7E20FF31FEE5FFE4F95
S113106084819817A8F4112319F4E0ECF0E002C08D
S1131070E8ECF0E0808187FF0BC0112319F4E6EC63
S1131080F0E002C0EEECF0E06081812F0E944A079C
S1131090212F30E0F901EE0FFF1F43E0220F331F31
S11310A04A95E1F7E20FF31FEE5FFE4F808188233C
S11310B009F059C0112319F4E1ECF0E002C0E9ECA5
S11310C0F0E08081806880834EC080911B0188237A
S11310D019F01092180147C080911E0190911F01D0
S11310E0009709F440C09091180180911A01981753
S11310F0D0F5809153038823A9F40E94E10B8093D7
S1131100530310E00BC00E94DC0BE02FF0E031979A
S1131110E11BF109EC5AFC4F80831F5F00915303DC
S1131120101788F3A0915303AA23E9F080911801C2
S1131130E0911E01F0911F01E80FF11DA150A09351
S11311405303B0E0AC5ABC4F8C918083809118015A
S11311508F5F809318019091180180911A0198175C
S113116009F0BACFB2CF1F910F910895823051F098
S1131170882319F4E1ECF0E002C0E9ECF0E090819E
S11311809F779083A82FB0E0FD01EE0FFF1F53E07F
S1131190AA0FBB1F5A95E1F7EA0FFB1FEE5FFE4F44
S11311A071876087682F70E0FB01EE0FFF1F93E0EB
S11311B0660F771F9A95E1F7E60FF71FEE5FFE4F74
S11311C01282682F70E0FB01EE0FFF1FA3E0660F91
S11311D0771FAA95E1F7E60FF71FEE5FFE4F4483F2
S11311E0482F50E0FA01EE0FFF1F63E0440F551F34
S11311F06A95E1F7E40FF51FEE5FFE4F2583823019
S1131200D9F0282F30E0F901EE0FFF1F43E0220F41
S1131210331F4A95E1F7E20FF31FEE5FFE4F908113
S1131220992351F4882319F4E1ECF0E002C0E9ECCD
S1131230F0E0808180688083089521E00E94B608F0
S113124008950E941D0908951F920F920FB60F92E0
S11312500BB60F9211242F933F934F935F936F9389
S11312607F938F939F93AF93BF93EF93FF9360917B
S1131270C60080E00E944A07FF91EF91BF91AF91B1
S11312809F918F917F916F915F914F913F912F919A
S11312900F900BBE0F900FBE0F901F9018951F92CA
S11312A00F920FB60F920BB60F9211242F933F9308
S11312B04F935F936F937F938F939F93AF93BF935A
S11312C0EF93FF936091CE0081E00E944A07FF9163
S11312D0EF91BF91AF919F918F917F916F915F91AA
S11312E04F913F912F910F900BBE0F900FBE0F9017
S11312F01F901895882319F4E1ECF0E002C0E9ECA2
S1131300F0E08081806280830895882319F4E1EC01
S1131310F0E002C0E9ECF0E080818F7D80830895E5
S1131320282F30E0F901EE0FFF1F93E0220F331F47
S11313309A95E1F7E20FF31FEE5FFE4F26813781A6
S113134021153105A1F1282F30E0F901EE0FFF1F1F
S1131350A3E0220F331FAA95E1F7E20FF31FEE5F1C
S1131360FE4F4181282F30E0F901EE0FFF1F63E0AB
S1131370220F331F6A95E1F7E20FF31FEE5FFE4F72
S113138093814917A0F4282F30E0F901EE0FFF1FD5
S113139043E0220F331F4A95E1F7E20FF31FEE5F9C
S11313A0FE4F9081992319F40E947A0908950E94AE
S11313B085090895823031F1282F30E0F901EE0FCC
S11313C0FF1F53E0220F331F5A95E1F7E20FF31F7B
S11313D0EE5FFE4F9081992349F4882319F4E1ECE0
S11313E0F0E002C0E9ECF0E098E908C0882319F4C1
S11313F0E1ECF0E002C0E9ECF0E098E190830E94B7
S1131400900978940895882319F0813041F404C038
S113141080E00E94DA09089581E00E94DA090895C3
S1131420A0E0B0E0E6E1FAE00C94C00CD82E7A011A
S11314308B010E94030A8D2D823001F1DD2019F405
S1131440C4ECD0E002C0CCECD0E0C801B70128EF76
S11314503FEF4FEF5FEF0E94500C6050734D8E4C86
S11314609E4FA8019701E4E0220F331F441F551F2C
S1131470EA95D1F70E94880C39832883CDB7DEB76B
S1131480E7E00C94DC0C0E94100A0895282F30E049
S1131490F901EE0FFF1F73E0220F331F7A95E1F776
S11314A0E20FF31FEE5FFE4F468157814115510550
S11314B009F465C0282F30E0F901EE0FFF1F93E017
S11314C0220F331F9A95E1F7E20FF31FEE5FFE4FF1
S11314D06181282F30E0F901EE0FFF1FA3E0220FF6
S11314E0331FAA95E1F7E20FF31FEE5FFE4F9381DE
S11314F0691708F044C0882319F4E0ECF0E002C056
S1131500E8ECF0E0908195FF3AC0882319F4A6EC4A
S1131510B0E002C0AEECB0E0282F30E0F901EE0FED
S1131520FF1F63E0220F331F6A95E1F7E20FF31FF9
S1131530EE5FFE4F9181490F511DFA0190819C93FA
S1131540282F30E0F901EE0FFF1F93E0220F331F25
S11315509A95E1F7E20FF31FEE5FFE4F91819F5FD3
S1131560282F30E0F901EE0FFF1FA3E0220F331FF5
S1131570AA95E1F7E20FF31FEE5FFE4F91830E94FD
S1131580900908951F93182F823031F00E94850925
S1131590812F0E94460A1DC080911C0190911D015B
S11315A00097B9F03091170120911901321788F48E
S11315B006C0809117018F5F80931701EDCF2091B2
S11315C01701820F911DFC0180810E94E80B882382
S11315D081F71F91089580E00E94C20A81E00E9471
S11315E0C20A82E00E94C20A80E00E94F10781E000
S11315F00E94F10782E00E94F10708950E94EB0A1D
S11316000895282F30E0F901EE0FFF1F93E0220F19
S1131610331F9A95E1F7E20FF31FEE5FFE4F7783D6
S11316206683282F30E0F901EE0FFF1FA3E0220F9D
S1131630331FAA95E1F7E20FF31FEE5FFE4F11820D
S1131640282F30E0F901EE0FFF1F63E0220F331F54
S11316506A95E1F7E20FF31FEE5FFE4F438382309A
S113166011F00E94900908950E94010B08951F92A1
S11316700F920FB60F920BB60F9211242F933F9334
S11316804F935F936F937F938F939F93AF93BF9386
S1131690EF93FF9380E00E94460AFF91EF91BF9180
S11316A0AF919F918F917F916F915F914F913F91F6
S11316B02F910F900BBE0F900FBE0F901F90189597
S11316C01F920F920FB60F920BB60F9211242F9305
S11316D03F934F935F936F937F938F939F93AF93B6
S11316E0BF93EF93FF9381E00E94460AFF91EF912D
S11316F0BF91AF919F918F917F916F915F914F9126
S11317003F912F910F900BBE0F900FBE0F901F9023
S113171018956F9364E06A95F1F76F910197C9F793
S113172008952F928F939F932FB680915D0390918C
S11317305E03019680935D0390935E0390E0809135
S11317405F03891F80935F03909165039C5F90936F
S113175065038091640380519742C0F090936503C0
S11317608093640380916003909161030196809358
S113177060039093610390E080916203891F8093DA
S1131780620380916303891F809363032FBE9F913B
S11317908F912F901895CF93DF93EC0105C088EEBD
S11317A093E00E94890B21972097C9F7DF91CF918D
S11317B008950E94CB0B08958FEF64E00E942B0CD8
S11317C0089583E867E00E942B0C0E94DC0B0895C7
S11317D01F93182F982F9095991F9927991F85E883
S11317E0891B65E00E942B0C812F8F7765E00E9496
S11317F02B0C1F9108956F9364E06A95F1F76F9134
S11318000197C9F70895A1E0B0E0E9E0FCE00C9489
S1131810C40C182F249909C02C9907C02C9A8EE166
S113182090E069830E94FB0B698184B1806A84B96A
S11318302698812F837080656C7A862B8CBD81E01D
S113184012FF80E08DBD81E090E00E94CB0B2196D9
S1131850E3E00C94E00C0F931F93082F162F0CB4A5
S113186006FC04C080E064E00E94030C0CB404FC99
S113187003C08CB580618CBD0EBD03C00CB404FEE6
S11318800BC00DB407FEFACF112321F0812F90E095
S11318900E94FB0B8EB501C080E01F910F9108954B
S11318A0DB018F939F930E94AA0CBF91AF91A29FDB
S11318B0800D911DA39F900DB29F900D112408954A
S11318C0AA1BBB1B51E107C0AA1FBB1FA617B70762
S11318D010F0A61BB70B881F991F5A95A9F780957E
S11318E09095BC01CD01089597FB072E16F4009442
S11318F007D077FD09D00E94600C07FC05D03EF4A8
S1131900909581959F4F0895709561957F4F0895A7
S1131910A1E21A2EAA1BBB1BFD010DC0AA1FBB1FEF
S1131920EE1FFF1FA217B307E407F50720F0A21B61
S1131930B30BE40BF50B661F771F881F991F1A94CE
S113194069F760957095809590959B01AC01BD01F8
S1131950CF0108950E94EC0CA59F900DB49F900DAB
S1131960A49F800D911D112408952F923F924F92B0
S11319705F926F927F928F929F92AF92BF92CF921B
S1131980DF92EF92FF920F931F93CF93DF93CDB724
S1131990DEB7CA1BDB0B0FB6F894DEBF0FBECDBF9C
S11319A009942A88398848885F846E847D848C846D
S11319B09B84AA84B984C884DF80EE80FD800C8176
S11319C01B81AA81B981CE0FD11D0FB6F894DEBF59
S11319D00FBECDBFED010895A29FB001B39FC0011A
S11319E0A39F700D811D1124911DB29F700D811D47
S11319F01124911D0895CF93DF938230910510F443
S1131A0082E090E0E091CC03F091CD0320E030E05F
S1131A10A0E0B0E0309739F140815181481759076F
S1131A20B8F04817590771F482819381109729F00F
S1131A3013969C938E9312972CC09093CD0380930E
S1131A40CC0327C02115310531F04217530718F094
S1131A50A901DB0101C0EF019A01BD01DF01028090
S1131A60F381E02DD7CF21153105F9F0281B390B6F
S1131A702430310580F48A819B816115710521F040
S1131A80FB019383828304C09093CD038093CC03A2
S1131A90FE01329644C0FE01E20FF31F819391933D
S1131AA022503109398328833AC02091CA033091E6
S1131AB0CB03232B41F42091220130912301309355
S1131AC0CB032093CA0320912001309121012115D9
S1131AD0310541F42DB73EB74091240150912501C1
S1131AE0241B350BE091CA03F091CB03E217F307F3
S1131AF0A0F42E1B3F0B2817390778F0AC014E5F7A
S1131B005F4F2417350748F04E0F5F1F5093CB03E8
S1131B104093CA038193919302C0E0E0F0E0CF01C7
S1131B20DF91CF910895CF93DF93009709F487C095
S1131B30FC01329713821282C091CC03D091CD0361
S1131B40209781F420813181280F391F8091CA03A5
S1131B509091CB038217930779F5F093CB03E0932D
S1131B60CA036DC0DE0120E030E0AE17BF0750F4B9
S1131B7012964D915C9113979D014115510509F100
S1131B80DA01F3CFB383A28340815181840F951F7F
S1131B908A179B0771F48D919C911197840F951F5F
S1131BA002969183808312968D919C9113979383CF
S1131BB082832115310529F4F093CD03E093CC03FE
S1131BC03EC0D9011396FC93EE9312974D915D910B
S1131BD0A40FB51FEA17FB0779F480819181840F64
S1131BE0951F0296D90111969C938E9382819381BD
S1131BF013969C938E931297E0E0F0E08A819B8188
S1131C00009719F0FE01EC01F9CFCE01029628816C
S1131C103981820F931F2091CA033091CB03281777
S1131C20390769F4309729F41092CD031092CC034C
S1131C3002C013821282D093CB03C093CA03DF91F4
S1131C40CF9108950F931F93CF93DF93EC018B01F2
S1131C50009731F46115710519F480E090E038C003
S1131C606EE070E081E090E00E94CC13FC010097EC
S1131C70A1F380E883830115110571F013870287AE
S1131C8081E883838091CE039091CF03892B21F443
S1131C90F093CF03E093CE032097C9F0D187C08798
S1131CA08381826083838091D0039091D103892BB7
S1131CB071F4F093D103E093D0038091D203909117
S1131CC0D303892B21F4F093D303E093D203CF0100
S1131CD0DF91CF911F910F910895CF93DF93CDB7EB
S1131CE0DEB7FE01359661917191AF018091D00309
S1131CF09091D1030E94FD0EDF91CF9108950F932F
S1131D001F93CF93DF93E091D003F091D10323810C
S1131D1021FF1BC0EC0100E010E089916091D00329
S1131D207091D103DB011896ED91FC9119978823EA
S1131D3031F00995892B89F30FEF1FEFEECF8AE07D
S1131D400995892B11F4C80102C08FEF9FEFDF9131
S1131D50CF911F910F9108950F931F93CF93DF930A
S1131D60CDB7DEB72E970FB6F894DEBF0FBECDBF4A
S1131D700D891E8986E08C831A8309838FEF9FE780
S1131D809E838D83AE01475E5F4F6F89788DCE0150
S1131D9001960E94FD0EEF81F885E00FF11F10827D
S1131DA02E960FB6F894DEBF0FBECDBFDF91CF9154
S1131DB01F910F910895CF93DF93CDB7DEB72E9780
S1131DC00FB6F894DEBF0FBECDBF85E08C838B8940
S1131DD09C899A838983AE01495E5F4F6D897E89B0
S1131DE0CE0101960E9495122E960FB6F894DEBF8E
S1131DF00FBECDBFDF91CF9108952F923F924F92A6
S1131E005F926F927F928F929F92AF92BF92CF9286
S1131E10DF92EF92FF920F931F93CF93DF93CDB78F
S1131E20DEB72C970FB6F894DEBF0FBECDBF7C0192
S1131E306B018A01FC0117821682838181FFBDC177
S1131E40CE0101964C01F7019381F60193FD859132
S1131E5093FF81916F01882309F4ABC1853239F472
S1131E6093FD859193FF81916F01853229F4B70128
S1131E7090E00E945614E7CF512C312C20E0203200
S1131E80A0F48B3269F030F4803259F0833269F473
S1131E9020612CC08D3239F0803339F4216026C0A2
S1131EA02260246023C0286021C027FD27C030EDB4
S1131EB0380F3A3078F426FF06C0FAE05F9E300D02
S1131EC01124532E13C08AE0389E300D1124332E72
S1131ED020620CC08E3221F426FD6BC1206406C042
S1131EE08C3611F4206802C0883641F4F60193FD63
S1131EF0859193FF81916F018111C1CF982F9F7DAF
S1131F009554933028F40C5F1F4FFFE3F9830DC001
S1131F10833631F0833771F0833509F05BC022C01A
S1131F20F801808189830E5F1F4F44244394512C10
S1131F30540115C03801F2E06F0E711CF801A08045
S1131F40B18026FF03C0652D70E002C06FEF7FEF04
S1131F50C5012C870E940D142C0183012C852F7739
S1131F60222E17C03801F2E06F0E711CF801A08018
S1131F70B18026FF03C0652D70E002C06FEF7FEFD4
S1131F80C5012C870E94FB132C012C852068222E6E
S1131F90830123FC1BC0832D90E048165906B0F43E
S1131FA0B70180E290E00E9456143A94F4CFF50110
S1131FB027FC859127FE81915F01B70190E00E9483
S1131FC0561431103A94F1E04F1A51084114510457
S1131FD071F7E5C0843611F0893639F5F80127FF29
S1131FE007C060817181828193810C5F1F4F08C09B
S1131FF060817181882777FD8095982F0E5F1F4F30
S11320002F76B22E97FF09C09095809570956195B3
S11320107F4F8F4F9F4F2068B22E2AE030E0A401FB
S11320200E94A114A82EA81844C0853729F42F7E35
S1132030B22E2AE030E025C0F22FF97FBF2E8F3672
S1132040C1F018F4883579F0B4C0803719F08837B6
S113205021F0AFC02F2F2061B22EB4FE0DC08B2D06
S11320608460B82E09C024FF0AC09F2F9660B92E41
S113207006C028E030E005C020E130E002C020E1E5
S113208032E0F801B7FE07C06081718182819381DB
S11320900C5F1F4F06C06081718180E090E00E5F8D
S11320A01F4FA4010E94A114A82EA818FB2DFF778E
S11320B0BF2EB6FE0BC02B2D2E7FA51450F4B4FEFC
S11320C00AC0B2FC08C02B2D2E7E05C07A2C2B2D05
S11320D003C07A2C01C0752C24FF0DC0FE01EA0D4B
S11320E0F11D8081803311F4297E09C022FF06C0CE
S11320F07394739404C0822F867809F0739423FD3B
S113210013C020FF06C05A2C731418F4530C57182C
S1132110732C731468F4B70180E290E02C870E945A
S1132120561473942C85F5CF731410F4371801C02A
S1132130312C24FF12C0B70180E390E02C870E9469
S113214056142C8522FF17C021FF03C088E590E0B8
S113215002C088E790E0B7010CC0822F867859F05E
S113216021FD02C080E201C08BE227FD8DE2B701B0
S113217090E00E945614A51438F4B70180E390E06F
S11321800E9456145A94F7CFAA94F401EA0DF11D53
S11321908081B70190E00E945614A110F5CF33203E
S11321A009F451CEB70180E290E00E9456143A94AB
S11321B0F6CFF7018681978102C08FEF9FEF2C96AF
S11321C00FB6F894DEBF0FBECDBFDF91CF911F9144
S11321D00F91FF90EF90DF90CF90BF90AF909F90C2
S11321E08F907F906F905F904F903F902F900895C5
S11321F020FD09C0FC0123FD05C022FF02C073833A
S1132200628351834083089544FD10C046FD10C08D
S1132210DB01FC01AA0FBB1FEE1FFF1F1094D1F7B7
S11322206A0F7B1F8E1F9F1F31E003C033E001C084
S113223034E0660F771F881F991F3150D1F7620F62
S1132240711D811D911D08950F931F93CF93DF93EB
S11322508C01C8010E941814EC0197FD08C00E946B
S1132260E813892BB1F7B801CE010E948814CE017E
S1132270DF91CF911F910F9108958F929F92AF920A
S1132280CF92DF92EF92FF920F931F93CF93DF933E
S1132290EC01A62E4A01022F0E941814AC01552706
S11322A04B32510521F04D32510551F40068AA9486
S11322B011F480E067C0CE010E94181497FDF9CF95
S11322C0102F1D7F302F307301F58033F1F4FF247C
S11322D0FA94FA0C09F442C0CE010E94181497FD36
S11322E03DC0382F3F7D383551F41264AA94AA9426
S11322F0A9F1CE010E94181497FF07C02FC006FF52
S113230002C0126001C01261AF2CC12CD12C760125
S113231020ED280F283080F014FF04C0BE010E9475
S1132320881419C02A3040F016FFF8CF2F7D3FEEF5
S1132330320F363098F72750412FC701B6010E945B
S113234004116B017C011260AA9459F0CE010E9421
S1132350181497FFDDCF11FD04C0ABCFC12CD12CD5
S1132360760117FF08C0F094E094D094C094C11C87
S1132370D11CE11CF11C212FB701A601C4010E944C
S1132380F81081E0DF91CF911F910F91FF90EF90B2
S1132390DF90CF90AF909F908F9008957F928F920F
S11323A09F92AF92BF92CF92DF92EF92FF920F93E0
S11323B01F93CF93DF93CDB7DEB7A1970FB6F894F1
S11323C0DEBF0FBECDBF5C017A018E010F5F1F4FD0
S11323D0680180E2D8011D928A95E9F7F5017380BE
S11323E040E050E0812CB0E0912C81E090E0F901D4
S11323F073FCA59173FEA1918F017A2F9F01A11106
S113240003C080E090E07DC0AE3519F4411551055C
S113241059F1E92DF0E0E417F5073CF4AD3569F125
S1132420AD3219F4BB2319F103C0B11101C08A2ED6
S1132430E72FE695E695E69586010E0F111DF80146
S1132440A72FA7708C0102C0000F111FAA95E2F7F5
S1132450D801B081BA2BB083781559F0781510F4EF
S11324607F5FE6CF7150E4CF9924939403C0B1E029
S113247001C0B0E04F5F5F4FBACFBB2319F08E812C
S113248080628E83911003C09924939415C0F60141
S1132490CE018196208120952193E817F907D1F781
S11324A0F3CFE114F10429F0D7018C93F7013196AD
S11324B07F01615001F1912CC50169A30E94181498
S11324C069A197FD16C0282F269526952695F60115
S11324D0E20FF11D208130E0AC014770552702C0A6
S11324E0359527954A95E2F720FDDBCFB5010E948B
S11324F08814911086CFE114F10411F0D7011C92D5
S1132500C801A1960FB6F894DEBF0FBECDBFDF9110
S1132510CF911F910F91FF90EF90DF90CF90BF90DC
S1132520AF909F908F907F9008954F925F927F928B
S11325308F929F92AF92BF92CF92DF92EF92FF92CF
S11325400F931F93CF93DF931F92CDB7DEB78C0108
S11325502B017A01FC0117821682A12CF801D38089
S1132560F201D3FC8591D3FE8191382F2F0188236A
S113257009F4FCC090E039830E94E8133981892B67
S113258021F0C8010E942411E9CF353241F4F2014F
S1132590D3FC3591D3FE31912F01353269F4C80152
S11325A039830E941814398197FDDEC03817B1F2BF
S11325B0B8010E948814DAC03A3241F4D3FC359150
S11325C0D3FE31912F01BB24B39401C0B12C712CE3
S11325D020ED230F2A3090F4FB2DF260BF2E672DDF
S11325E070E080E090E040E20E940411762EF20157
S11325F0D3FC3591D3FE31912F01EACFB1FE03C054
S1132600711003C0B3C077247A94383619F03C367D
S113261061F014C0F201D3FC3591D3FE31912F0146
S1132620383661F4FB2DF860BF2E8B2D8460B82EF4
S1132630F201D3FC3591D3FE31912F01332309F4F8
S113264095C0632F70E08CE890E039830E94F0130A
S11326503981892B09F48AC0B0FC07C0F701C08016
S1132660D180C70102967C0102C0C12CD12C3E3618
S113267051F4F8014681578160E070E02B2DC601CA
S11326800E94F8106BCF3336A1F4B1FC02C077245A
S11326907394C8010E94181497FD66C0C114D10434
S11326A029F0F6018083C60101966C017A9489F7BA
S11326B057C03B3559F49201A601672DC8010E9409
S11326C0CE112C01009709F04BC045C0C8013983D5
S11326D00E942411398197FD47C03F3669F128F4DF
S11326E0343631F1393679F12BC0333769F0353767
S11326F0F9F026C0C114D10429F0F6018082C60184
S113270001966C017A9471F0C8010E9418144C016E
S113271097FD08C00E94E813892B61F3B801C40136
S11327200E948814C114D104D9F0F601108218C093
S1132730FB2DF062BF2E07C08B2D8061B82E03C025
S11327409B2D9064B92E2B2DA601672DC8010E94E4
S11327503D11811105C0F8018381807329F406C0FD
S1132760B0FCFCCEA394FACEAA2019F08A2D90E0F6
S113277002C08FEF9FEF0F90DF91CF911F910F91C8
S1132780FF90EF90DF90CF90BF90AF909F908F908D
S11327907F905F904F9008950F931F93CF93DF9393
S11327A0869F8001879F100D969F100D1124C801EC
S11327B00E94FB0CEC01009729F0A80160E070E096
S11327C00E940614CE01DF91CF911F910F910895BD
S11327D0911115C1803219F089508550D0F70895B0
S11327E0FC010590061621F00020D9F7C0010895D8
S11327F03197CF010895FC0105906150704001109C
S1132800D8F7809590958E0F9F1F0895DC0101C025
S11328106D9341505040E0F70895FC0161507040C1
S113282001900110D8F7809590958E0F9F1F089501
S1132830CF93DF93EC012B8120FF33C026FF0AC026
S11328402F7B2B838E819F8101969F838E838A8128
S113285090E029C022FF0FC0E881F9818081992787
S113286087FD9095009719F420622B831AC0319646
S1132870F983E8830EC0EA85FB85099597FF09C0B3
S11328802B81019611F480E101C080E2822B8B83BD
S113289008C02E813F812F5F3F4F3F832E839927AE
S11328A002C08FEF9FEFDF91CF9108950F931F9395
S11328B0CF93DF93182F092FEB018B8181FD03C088
S11328C08FEF9FEF20C082FF10C04E815F812C816B
S11328D03D81421753077CF4E881F9819F012F5F02
S11328E03F4F39832883108306C0E885F985812FFB
S11328F00995892B29F72E813F812F5F3F4F3F8315
S11329002E83812F902FDF91CF911F910F910895E6
S1132910FB01238120FF12C026FD10C08F3F3FEF33
S1132920930761F082832F7D20642383268137817E
S11329302150310937832683992708958FEF9FEF1C
S11329400895FA01AA27283051F1203181F1E89441
S11329506F936E7F6E5F7F4F8F4F9F4FAF4FB1E08E
S11329603ED0B4E03CD0670F781F891F9A1FA11D89
S1132970680F791F8A1F911DA11D6A0F711D811D8A
S1132980911DA11D20D009F468943F912AE0269F4F
S113299011243019305D3193DEF6CF010895462FAE
S11329A04770405D4193B3E00FD0C9F7F6CF462F8F
S11329B04F70405D4A3318F0495D31FD40524193F8
S11329C002D0A9F7EACFB4E0A695979587957795B5
S11329D06795BA95C9F700976105710508959B013C
S11329E0AC010A2E06945795479537952795BA95C5
S11329F0C9F7620F731F841F951FA01D089599279F
S10B2A0088270895F894FFCF24
S1132A0802100000000000000000000000000000A8
S1132A1800000000000001000000000000000000A9
S1132A280000D403200005000200F40143616E6E27
S1132A386F7420746F67676C65206E65676174696D
S1132A487665206D732E00436F6E766572746564C7
S1132A5820746F20746F67676C6520706572696F86
S1132A68643A2025642E0A00477265656E20746FE7
S1132A7820746F67676C65206174206672657120C5
S1132A882564487A2028706572696F64202564205B
S1132A986D73290A005553422053657269616C208D
S1132AA8496E697469616C697A65640D0A000D4D33
S1132AB8656E753A207B54505A7D207B52475941A4
S1132AC87D203C696E743E3A2000256320256320EE
S1132AD82564004F703A256320433A256320563A0B
S1132AE825640D0A0042616420436F6C6F722E20C6
S1132AF8547279207B524759417D0D0A0052207443
S1132B086F67676C65733A2025640D0A0047207463
S1132B186F67676C65733A2025640D0A0059207441
S1132B286F67676C65733A2025640D0A004465660F
S1132B3861756C7420696E207028636F6C6F7229DC
S1132B482E20486F773F0D0A0044656661756C74E2
S1132B5820696E207A28636F6C6F72292E20486F63
S1132B68773F0D0A00436F6D6D616E6420646F6575
S1132B7873206E6F7420636F6D707574652E0D0A03
S1132B8800496E697469616C697A696E6720736F4C
S1132B9866747761726520636C6F636B20746F2051
S1132BA8667265712031303030487A202870657239
S1132BB8696F642031206D732900496E69746961F5
S1132BC86C697A696E672079656C6C6F7720636CC1
S1132BD86F636B20746F2066726571202564487A70
S1132BE82028706572696F64202564206D73290A32
S1132BF800677265656E20706572696F642025646C
S1132C080A00536574204F4352314120746F2025C4
S1132C18640A00496E697469616C697A696E67202F
S1132C28677265656E20636C6F636B20746F2066D2
S1132C38726571202564487A2028706572696F640A
S10D2C48202564206D73290A0000A2
S9030000FC
