S01400004C6564426C696E6B526174652E737265637F
S11300000C944A000C9469000C9469000C946900E7
S11300100C9469000C9469000C9469000C946900B8
S11300200C9469000C9469000C9469000C948F0A78
S11300300C9469000C9469000C9469000C942404D9
S11300400C9469000C9469000C9469000C94690088
S11300500C9422080C94350A0C9469000C946900E1
S11300600C9469000C9469000C9469000C94690068
S11300700C944D080C945E0A0C9469000C9469006D
S11300800C9469000C9469000C9469006431360086
S11300906331360011241FBECFEFD0E4DEBFCDBFE5
S11300A011E0A0E0B1E0E4E2F8E100E00BBF02C03F
S11300B007900D92AC39B107D9F722E0ACE9B1E071
S11300C001C01D92A431B207E1F70E9435010C94DE
S11300D0100C0C94000082E00E942606811103C0DB
S11300E00E94FC09F8CF0895CF93DF9382E491E056
S11300F00E94C20588E08BB9CFECD1E08881998158
S113010088579C4E0E94D70A1BB8888199818857CA
S11301109C4E0E94D70A1092CF011092D0011092E7
S1130120D1011092D201DF91CF910895CF93C82FBE
S11301300E94AB0581E591E00E94C2058C2F0E94CC
S11301402C0561E080E00E94E505C73401F190F4DC
S1130150CD32E9F150F4CB3209F04AC088E08AB9D3
S113016080ED97E0A0E0B0E038C0C33411F1C434AE
S113017039F13EC0C43621F128F4C23581F0C336CA
S1130180C1F036C0C73619F0C23749F031C088B162
S113019090E1892788B93C9A86E591E007C08BB144
S11301A092E089278BB9519A80E691E0CF910C9423
S11301B0C20580E990E00E94870488E691E0F6CFCA
S11301C08CE890E00E94870484E791E0EFCF88E018
S11301D08AB980E690EFAFEFBFEF8093CF019093A1
S11301E0D001A093D101B093D201CF910C947400AB
S11301F00E946B0080E28C278093F40141E064EF5D
S113020071E082E00E94320A80E891E00E94C20517
S11302108091F401CF910C942C0582E00E94160683
S1130220E091D3018E1789F0F0E0EC52FE4F80810B
S11302300E9496008091D3018F3119F41092D3015A
S1130240ECCF8F5F8093D301E8CF089584E20E94BE
S11302501306882319F00E947400F8CF84E20E94E8
S11302601306811101C01BB808950E94AB0585E8EF
S113027091E00E94C20561E080E00E94E50581E909
S113028091E00E94C20540E855E260E070E082E03F
S11302900E94410940E264ED71E082E00E941F087F
S11302A00E94FC090E940D010E942601F9CF909141
S11302B0A101E0919D01F0919E01992311F0849197
S11302C001C08081282F21542A3110F4805E0895C2
S11302D0803271F420919D0130919E01A9014F5FFC
S11302E05F4F50939E0140939D012115310509F7FD
S11302F00895EF92FF92CF93DF930E945701C0E0DD
S1130300D0E01BC09E01220F331F93E0CC0FDD1FF2
S11303109A95E1F7C20FD31F992787FD9095C80FCF
S1130320D91FE09780919D0190919E010196909331
S11303309E0180939D010E945701982F90539A30FB
S113034008F3CE01DF91CF91FF90EF9008951092C2
S11303506F0083E28093800081E18093810010929A
S1130360820080E197E29093890080938800109244
S11303708B0010928A00549A7894089580919C017D
S1130380882329F481E080939C010E94A7010895A9
S1130390A0E0B0E0EEECF1E00C94D00B8C015B013A
S11303A0E42E0E94BE011092000117FF04C01F77C3
S11303B0AAE0FA2E02C0FF24F394C0908100DD2449
S11303C028EFC222DD2488EC3F2D389FC001112480
S11303D080179107D8F4E80167E20131160710F09D
S11303E0C0E1D7E2BE017695679580E090E0605861
S11303F0794687469F4F9E0140E050E00E947E0B65
S1130400890181E090E0C82AD92A2CC098E2F99E9B
S1130410902D112480E0892EE4014E01982EE401F0
S11304208016910608F4E801BE01769567959E0151
S113043040E050E08F2D8A3039F480E090E0605E37
S1130440734481449F4F06C080E090E060537D4E2A
S11304508C4E9F4F0E947E0B890152E0852E912C79
S1130460C828D9282F2D2A3039F4CE0105966AE000
S113047070E00E946A0BEB0133E0C83ED30779F0C9
S1130480BE0180E090E0950140E050E00E944E0BF8
S113049028EE33E040E050E00E94A00B01C095013B
S11304A010926F00C092810010938900009388001D
S11304B040918800509189006E2D603108F06FE002
S11304C080E190E0861B9109BA0102C07695679598
S11304D08A95E2F770938B0060938A003093A401AD
S11304E02093A30186B38FEF86BB81E080936F00D6
S11304F0CDB7DEB7ECE00C94EC0B9B018F3F11F011
S1130500442329F488EE93E0B90140E049C08131E5
S113051030F0582F5051503618F05FE501C050E0CC
S1130520852F6CE00E945E0BA82FB0E0E4EFFFEF94
S1130530AE9FB001AF9F700DBE9F700D1124650F6B
S1130540711D6C30710540F4FB01EE0FFF1FE65F77
S1130550FE4F6081718102C060E070E0873081F0FD
S1130560082E02C0660F771F0A94E2F7823028F043
S1130570CB0105966AE070E00CC0605070480BC077
S1130580CB01B6E0880F991FBA95E1F7029665E0B2
S113059070E00E946A0B403108F04FE0CB01B901D2
S11305A00E94C8010895A0E0B0E0E9EDF2E00C94E7
S11305B0CF0BB090010180919F01882361F060917D
S11305C0A001662341F08FEF70E040E00E947D02BD
S11305D01092A00134C1C0ECDDE5AA24A39414E078
S11305E0712E00ED17E0B4E0EB2EF12CA4EFCA2E2F
S11305F0A1E0DA2EFFE08F2E912C0E94570120916A
S11306009D0130919E012F5F3F4F30939E012093B7
S11306109D018636F1F18736CCF4823609F4AFC0F9
S113062083367CF48E3349F18F333CF4813209F400
S113063087C08C3309F09BC022C0813609F097C073
S11306409BC0843601F185360CF51BC08F3609F446
S113065047C0803744F48C3611F18D3661F187360A
S113066009F085C019C0843709F444C0863709F4F9
S113067060C0823709F07BC039C0B394BECFBA944E
S1130680BCCFEE2435C0EE2482E07BC0EE2484E0AF
S113069078C0EE2485E075C0EE2487E072C00E9425
S11306A07901BC01909303018093020180910401BC
S11306B09091050137C00E9457018C3619F41092AD
S11306C09F0104C0A0929F011092A00180919D01FE
S11306D090919E01019690939E0180939D018DCFF0
S11306E00E947901B82E8093010187CFEE24E39410
S11306F080E047C00E947901BC01CE010E946A0BD0
S1130700CB01880F991F53E0660F771F5A95E1F7C5
S1130710860F971F90930501809304016091020155
S1130720709103010E946A0B7093070160930601A4
S113073064CF0E94790190930901809308015DCFF1
S1130740709201011093050100930401F0920301DA
S1130750E0920201D0920701C09206019092090131
S11307608092080110929F0144E0B42E46CF10926B
S11307709E0110929D0163C0EE2489E002C0EE2424
S11307808BE09CE0B99EB02C1124B80E0E94570156
S11307908B3211F08332B9F480919D0190919E01C6
S11307A0019690939E0180939D01B394EFCF809125
S11307B09D0190919E01019690939E0180939D01CD
S11307C0BA940E9457018D3291F3C0910601D091E1
S11307D007018153883058F4C0910401D091050178
S11307E00E947901BC01CE010E946A0BEB018E01CB
S11307F00BC080919D0190919E01019690939E0162
S113080080939D01C00FD11F169507950E94570133
S11308108E3279F380919F01882339F0CE01969529
S113082087958093A001C81BD109EE2011F0BB2449
S1130830BA948B2DBE01409108010E947D02CDB770
S1130840DEB7EDE00C94EB0B1F920F920FB60F92F4
S11308500BB60F9211242F933F934F935F936F9393
S11308607F938F939F93AF93BF93EF93FF93809165
S1130870A3019091A4019C01215030403093A40124
S11308802093A301009711F510926F007894809142
S11308908100887F81608093810080E197E290935A
S11308A089008093880010928B0010928A0081E066
S11308B08093000180919D0190919E01009731F0F9
S11308C08091A201882311F40E94D302FF91EF9139
S11308D0BF91AF919F918F917F916F915F914F9154
S11308E03F912F910F900BBE0F900FBE0F901F9052
S11308F0189510926F0090939E0180939D0181E062
S11309008093A1011092A0010E94D30208950E9435
S11309107904089581E090E06F9364E06A95F1F7BB
S11309206F910197C9F708950F931F93CF93DF93A6
S113093017B13D982898299AC0E0D0E00E948A0413
S11309402A9A0E948A0406B12A980E948A042A9A42
S11309500E948A042A98249605FF10C09E0140E054
S113096050E08091A9019091AA01A091AB01B091AE
S1130970AC01281739074A075B0700F39E0140E0E2
S113098050E08091A9019091AA01A091AB01B0918E
S1130990AC01281739074A075B0728F082E390E087
S11309A0A0E0B0E004C080E395E7A0E0B0E080936D
S11309B0A9019093AA01A093AB01B093AC0117B91C
S11309C0DF91CF911F910F91089528B190E08F701E
S11309D09070880F991F880F991F237C282B28B9A2
S11309E02A9A0E948A042A980E948A040895A2E0FE
S11309F0B0E0EDEFF4E00C94D70B182F4A83698331
S1130A000E9475050E949404F7B008B12998698181
S1130A104A81662311F0289A01C0289887B18C6313
S1130A2087B9413029F0812F82958F700E94E504A7
S1130A30812F8F700E94E504F7B808B92296E5E08B
S1130A400C94F30B60E042E00E94F704089561E027
S1130A5042E00E94F70408950E942705089560E08B
S1130A6041E00E94F70408953D98459A80E395E794
S1130A70A0E0B0E08093A9019093AA01A093AB01F8
S1130A80B093AC01209A219A229A8EE190E00E94C0
S1130A90D70A83E00E942F0586E090E00E94D70ADF
S1130AA083E00E942F0582E090E00E94D70A83E051
S1130AB00E942F0582E090E00E94D70A82E00E9403
S1130AC02F0582E090E00E94D70A88E20E94220566
S1130AD088E00E94220581E00E94220586E00E94AF
S1130AE022058CE00E94220508958091AD0188239F
S1130AF029F481E08093AD010E943405089581E0DA
S1130B000E9422058091A5019091A601009711F100
S1130B10A0E0B0E208C0E091A501F091A601E20FC7
S1130B20F31FB083AF5F2A2F30E08091220190E061
S1130B3001976091230170E0869FA001879F500D6B
S1130B40969F500D1124241735072CF31092A801F9
S1130B501092A70108950E947F050895EF92FF92D5
S1130B60CF93DF93E82EE7017E01F92EE70102C05F
S1130B700E94270589918823D9F7DF91CF91FF90AF
S1130B80EF9008950E94AE050895A5E0B0E0EBEC67
S1130B90F5E00C94D90B182F80E8898380EC8A83C4
S1130BA084E98B8384ED8C83FE01E60FF11D818142
S1130BB0810F6D830E9422051093A8016D816093BB
S1130BC0A7012596E3E00C94F50B0E94C505089552
S1130BD087B1837D87B988B18C6288B985E090E05C
S1130BE06F9364E06A95F1F76F910197C9F70895DF
S1130BF08091AE01882329F481E08093AE010E94A4
S1130C00E8050895A1E0B0E0E8E0F6E00C94DA0B22
S1130C1089830E94F80596B190958981892321964C
S1130C20E2E00C94F60B0E9402060895282F30E0AF
S1130C30F901EE0FFF1F43E0220F331F4A95E1F73E
S1130C40E20FF31FEC5DFE4F82810895282F30E000
S1130C50F901EE0FFF1F73E0220F331F7A95E1F7BE
S1130C60E20FF31FEC5DFE4F4181282F30E0F901C4
S1130C70EE0FFF1F53E0220F331F5A95E1F7E20FE7
S1130C80F31FEC5DFE4F81E09381491380E00895EA
S1130C90282F30E0F901EE0FFF1FB3E0220F331FBE
S1130CA0BA95E1F7E20FF31FEC5DFE4F40855185E5
S1130CB04115510509F452C0282F30E0F901EE0F17
S1130CC0FF1F73E0220F331F7A95E1F7E20FF31F42
S1130CD0EC5DFE4F7281282F30E0F901EE0FFF1F0B
S1130CE0B3E0220F331FBA95E1F7E20FF31FEC5D77
S1130CF0FE4F9481791790F5282F30E0F901EE0F1B
S1130D00FF1F73E0220F331F7A95E1F7E20FF31F01
S1130D10EC5DFE4F9281490F511DFA016083282F2B
S1130D2030E0F901EE0FFF1F53E0220F331F5A95F5
S1130D30E1F7E20FF31FEC5DFE4F92819F5F282FD6
S1130D4030E0F901EE0FFF1FB3E0220F331FBA9515
S1130D50E1F7E20FF31FEC5DFE4F9283282F30E0A2
S1130D60F901EE0FFF1F73E0220F331F7A95E1F7AD
S1130D70E20FF31FEC5DFE4F4281282F30E0F901B2
S1130D80EE0FFF1F53E0220F331F5A95E1F7E20FD6
S1130D90F31FEC5DFE4F9481491701F5282F30E0D5
S1130DA0F901EE0FFF1F93E0220F331F9A95E1F72D
S1130DB0E20FF31FEC5DFE4F9581992379F0282F04
S1130DC030E0F901EE0FFF1FB3E0220F331FBA9595
S1130DD0E1F7E20FF31FEC5DFE4F128208950F93CB
S1130DE01F93182F823009F475C0882319F4E1EC9D
S1130DF0F0E002C0E9ECF0E080818F778083812FFE
S1130E0090E0FC01EE0FFF1F03E0880F991F0A9585
S1130E10E1F7E80FF91FEC5DFE4F8085918500979F
S1130E20A9F1212F30E0F901EE0FFF1FA3E0220FFB
S1130E30331FAA95E1F7E20FF31FEC5DFE4F928199
S1130E40212F30E0F901EE0FFF1F63E0220F331F63
S1130E506A95E1F7E20FF31FEC5DFE4F848198176A
S1130E60A8F4112319F4E0ECF0E002C0E8ECF0E09F
S1130E70808187FF0BC0112319F4E6ECF0E002C077
S1130E80EEECF0E06081812F0E944806212F30E0D3
S1130E90F901EE0FFF1F43E0220F331F4A95E1F7DC
S1130EA0E20FF31FEC5DFE4F8081882309F059C0E7
S1130EB0112319F4E1ECF0E002C0E9ECF0E08081E8
S1130EC0806880834EC080913D01882319F0109280
S1130ED03A0147C08091400190914101009709F483
S1130EE040C090913A0180913C019817D0F58091CF
S1130EF0BB018823A9F40E94DF0A8093BB0110E0A0
S1130F000BC00E94DA0AE02FF0E03197E11BF109EF
S1130F10E454FE4F80831F5F0091BB01101788F3D8
S1130F20A091BB01AA23E9F080913A01E09140012C
S1130F30F0914101E80FF11DA150A093BB01B0E075
S1130F40A454BE4F8C91808380913A018F5F80932B
S1130F503A0190913A0180913C01981709F0BACF77
S1130F60B2CF1F910F910895823051F0882319F464
S1130F70E1ECF0E002C0E9ECF0E090819F7790832F
S1130F80A82FB0E0FD01EE0FFF1F53E0AA0FBB1F17
S1130F905A95E1F7EA0FFB1FEC5DFE4F71876087FE
S1130FA0682F70E0FB01EE0FFF1F93E0660F771FC1
S1130FB09A95E1F7E60FF71FEC5DFE4F1282682F5A
S1130FC070E0FB01EE0FFF1FA3E0660F771FAA95E9
S1130FD0E1F7E60FF71FEC5DFE4F4483482F50E026
S1130FE0FA01EE0FFF1F63E0440F551F6A95E1F706
S1130FF0E40FF51FEC5DFE4F25838230D9F0282FD6
S113100030E0F901EE0FFF1F43E0220F331F4A9532
S1131010E1F7E20FF31FEC5DFE4F9081992351F449
S1131020882319F4E1ECF0E002C0E9ECF0E08081FF
S113103080688083089521E00E94B40708950E9487
S11310401B0808951F920F920FB60F920BB60F92C2
S113105011242F933F934F935F936F937F938F93B9
S11310609F93AF93BF93EF93FF936091C60080E08B
S11310700E944806FF91EF91BF91AF919F918F918C
S11310807F916F915F914F913F912F910F900BBE84
S11310900F900FBE0F901F9018951F920F920FB6CE
S11310A00F920BB60F9211242F933F934F935F939C
S11310B06F937F938F939F93AF93BF93EF93FF931C
S11310C06091CE0081E00E944806FF91EF91BF91AC
S11310D0AF919F918F917F916F915F914F913F91CC
S11310E02F910F900BBE0F900FBE0F901F9018956D
S11310F0882319F4E1ECF0E002C0E9ECF0E080812F
S1131100806280830895882319F4E1ECF0E002C042
S1131110E9ECF0E080818F7D80830895282F30E012
S1131120F901EE0FFF1F93E0220F331F9A95E1F7A9
S1131130E20FF31FEC5DFE4F268137812115310547
S1131140A1F1282F30E0F901EE0FFF1FA3E0220FD9
S1131150331FAA95E1F7E20FF31FEC5DFE4F4181C7
S1131160282F30E0F901EE0FFF1F63E0220F331F39
S11311706A95E1F7E20FF31FEC5DFE4F9381491787
S1131180A0F4282F30E0F901EE0FFF1F43E0220FF7
S1131190331F4A95E1F7E20FF31FEC5DFE4F908198
S11311A0992319F40E94780808950E9483080895E9
S11311B0823031F1282F30E0F901EE0FFF1F53E0A8
S11311C0220F331F5A95E1F7E20FF31FEC5DFE4F38
S11311D09081992349F4882319F4E1ECF0E002C0EA
S11311E0E9ECF0E098E908C0882319F4E1ECF0E0B8
S11311F002C0E9ECF0E098E190830E948E087894B4
S11312000895882319F0813041F404C080E00E94DD
S1131210D808089581E00E94D8080895A0E0B0E0BD
S1131220E4E1F9E00C94D50BD82E7A018B010E94ED
S113123001098D2D823001F1DD2019F4C4ECD0E0D8
S113124002C0CCECD0E0C801B70128EF3FEF4FEF6C
S11312505FEF0E944E0B6050734D8E4C9E4FA80161
S11312609701E4E0220F331F441F551FEA95D1F77D
S11312700E947E0B39832883CDB7DEB7E7E00C9458
S1131280F10B0E940E090895282F30E0F901EE0FAA
S1131290FF1F73E0220F331F7A95E1F7E20FF31F6C
S11312A0EC5DFE4F468157814115510509F465C037
S11312B0282F30E0F901EE0FFF1F93E0220F331FB8
S11312C09A95E1F7E20FF31FEC5DFE4F6181282F41
S11312D030E0F901EE0FFF1FA3E0220F331FAA95A0
S11312E0E1F7E20FF31FEC5DFE4F9381691708F0FD
S11312F044C0882319F4E0ECF0E002C0E8ECF0E02C
S1131300908195FF3AC0882319F4A6ECB0E002C09E
S1131310AEECB0E0282F30E0F901EE0FFF1F63E0E0
S1131320220F331F6A95E1F7E20FF31FEC5DFE4FC6
S11313309181490F511DFA0190819C93282F30E02F
S1131340F901EE0FFF1F93E0220F331F9A95E1F787
S1131350E20FF31FEC5DFE4F91819F5F282F30E079
S1131360F901EE0FFF1FA3E0220F331FAA95E1F747
S1131370E20FF31FEC5DFE4F91830E948E080895E7
S11313801F93182F823031F00E948308812F0E940E
S113139044091DC080913E0190913F010097B9F02E
S11313A03091390120913B01321788F406C08091B5
S11313B039018F5F80933901EDCF20913901820F7C
S11313C0911DFC0180810E94E60A882381F71F9108
S11313D0089580E00E94C00981E00E94C00982E073
S11313E00E94C00980E00E94EF0681E00E94EF069F
S11313F082E00E94EF0608950E94E9090895282FCB
S113140030E0F901EE0FFF1F93E0220F331F9A958E
S1131410E1F7E20FF31FEC5DFE4F77836683282F1D
S113142030E0F901EE0FFF1FA3E0220F331FAA954E
S1131430E1F7E20FF31FEC5DFE4F1182282F30E03D
S1131440F901EE0FFF1F63E0220F331F6A95E1F7E6
S1131450E20FF31FEC5DFE4F4383823011F00E94D4
S11314608E0808950E94FF0908951F920F920FB6E7
S11314700F920BB60F9211242F933F934F935F93C8
S11314806F937F938F939F93AF93BF93EF93FF9348
S113149080E00E944409FF91EF91BF91AF919F9129
S11314A08F917F916F915F914F913F912F910F9009
S11314B00BBE0F900FBE0F901F9018951F920F92A6
S11314C00FB60F920BB60F9211242F933F934F93A5
S11314D05F936F937F938F939F93AF93BF93EF9398
S11314E0FF9381E00E944409FF91EF91BF91AF9176
S11314F09F918F917F916F915F914F913F912F9128
S11315000F900BBE0F900FBE0F901F9018956F9306
S113151064E06A95F1F76F910197C9F708952F92E6
S11315208F939F932FB68091C5019091C601019628
S11315308093C5019093C60190E08091C701891FF3
S11315408093C7019091CD019C5F9093CD018091D0
S1131550CC0180519742C0F09093CD018093CC018F
S11315608091C8019091C90101968093C80190931C
S1131570C90190E08091CA01891F8093CA018091BA
S1131580CB01891F8093CB012FBE9F918F912F9008
S11315901895CF93DF93EC0105C088EE93E00E9489
S11315A0870A21972097C9F7DF91CF9108950E9468
S11315B0C90A08958FEF64E00E94290B089583E817
S11315C067E00E94290B0E94DA0A08951F93182FDE
S11315D0982F9095991F9927991F85E8891B65E095
S11315E00E94290B812F8F7765E00E94290B1F91A0
S11315F008956F9364E06A95F1F76F910197C9F7C5
S11316000895A1E0B0E0E7E0FBE00C94D90B182FBB
S1131610249909C02C9907C02C9A8EE190E0698323
S11316200E94F90A698184B1806A84B92698812F5D
S1131630837080656C7A862B8CBD81E012FF80E01C
S11316408DBD81E090E00E94C90A2196E3E00C94EC
S1131650F50B0F931F93082F162F0CB406FC04C030
S113166080E064E00E94010B0CB404FC03C08CB560
S113167080618CBD0EBD03C00CB404FE0BC00DB460
S113168007FEFACF112321F0812F90E00E94F90A7E
S11316908EB501C080E01F910F910895DB018F93F7
S11316A09F930E94BF0BBF91AF91A29F800D911D8C
S11316B0A39F900DB29F900D11240895991B79E07A
S11316C004C0991F961708F0961B881F7A95C9F7CE
S11316D080950895AA1BBB1B51E107C0AA1FBB1F1D
S11316E0A617B70710F0A61BB70B881F991F5A95AA
S11316F0A9F780959095BC01CD010895A1E21A2E19
S1131700AA1BBB1BFD010DC0AA1FBB1FEE1FFF1FA1
S1131710A217B307E407F50720F0A21BB30BE40BF1
S1131720F50B661F771F881F991F1A9469F7609538
S11317307095809590959B01AC01BD01CF010895F2
S1131740052E97FB1EF400940E94B70B57FD07D09B
S11317500E947E0B07FC03D04EF40C94B70B5095FB
S11317604095309521953F4F4F4F5F4F0895909589
S11317708095709561957F4F8F4F9F4F08950E947C
S1131780010CA59F900DB49F900DA49F800D911DF9
S1131790112408952F923F924F925F926F927F92FD
S11317A08F929F92AF92BF92CF92DF92EF92FF926D
S11317B00F931F93CF93DF93CDB7DEB7CA1BDB0B19
S11317C00FB6F894DEBF0FBECDBF09942A883988BE
S11317D048885F846E847D848C849B84AA84B984C5
S11317E0C884DF80EE80FD800C811B81AA81B981D1
S11317F0CE0FD11D0FB6F894DEBF0FBECDBFED01E5
S11318000895A29FB001B39FC001A39F700D811DD5
S11318101124911DB29F700D811D1124911D0895F5
S1071820F894FFCF66
S113182401040400D007F4010F009C01B501CF01A9
S1131834EA0107022602470269028E02B502DE02A9
S11318440A03021000000000000000000000000071
S1131854000000000000000001000000000000007F
S11318640000696E20626C696E6B206C6967687431
S11318740052583A2000677265656E204C45440056
S1131884726564204C454400706C6179206E6F74F9
S113189465204300706C6179206E6F746520440088
S11318A454583A200053656E642073657269616C00
S10F18B4006F7220707265737320420094
S9030000FC
