S01400004C6564426C696E6B526174652E737265637F
S11300000C944A000C9469000C9469000C946900E7
S11300100C9469000C9469000C9469000C946900B8
S11300200C9469000C9469000C9469000C94B70B4F
S11300300C9469000C9469000C9469000C945904A4
S11300400C9469000C9469000C9469000C94690088
S11300500C944A090C945D0B0C9469000C9469008F
S11300600C9469000C9469000C9469000C94690068
S11300700C9475090C94860B0C9469000C9469001B
S11300800C9469000C9469000C9469006431360086
S11300906331360011241FBECFEFD0E4DEBFCDBFE5
S11300A011E0A0E0B1E0E8EEFAE100E00BBF02C02D
S11300B007900D92AE38B107D9F722E0AEE8B1E06F
S11300C001C01D92AA30B207E1F70E945C010C94B2
S11300D0720D0C94000082E00E944E07811103C04F
S11300E00E94240BF8CF0895CF92DF92EF92FF92F3
S11300F00E94390C6B017C018091C3019091C40171
S11301009601281B390B213D374080F00E94F705EA
S1130110C701B601882799270E9454068BB198E03D
S113012089278BB9D092C401C092C301FF90EF908C
S1130130DF90CF900895803291F48091C101909125
S1130140C201019731F41092C2011092C1015B986F
S1130150089581E090E09093C2018093C1010895D5
S1130160CF93DF930E94E00588E08BB9C5ECD1E022
S11301708881998188579C4E0E94FF0B1BB8888107
S1130180998188579C4E0E94FF0B1092C5011092D2
S1130190C6011092C7011092C801DF91CF91089552
S11301A0CF93C82F0E94E00582E491E00E94F705F6
S11301B08C2F0E94610561E080E00E947706C734BD
S11301C0F1F080F4CD32D9F140F4CB3209F046C0DD
S11301D080ED97E0A0E0B0E036C0C33411F1C43440
S11301E039F13CC0C43621F128F4C23581F0C3365C
S11301F0C1F034C0C73619F0C23749F02FC088B1F6
S113020090E1892788B93C9A87E491E007C08BB1D3
S113021092E089278BB9519A81E591E0CF910C94B2
S1130220F70580E990E00E94BC0489E591E0F6CFEF
S11302308CE890E00E94BC0485E691E0EFCF80E377
S113024098EFAFEFBFEF8093C5019093C601A093E1
S1130250C701B093C801CF910C94B0000E946B0009
S113026080E28C278093EA0141E06AEE71E082E04B
S11302700E945A0B81E791E00E94F7058091EA0100
S1130280CF910C94610582E00E943E07E091C90180
S11302908E1789F0F0E0E653FE4F80810E94D00073
S11302A08091C9018F3119F41092C901ECCF8F5F8D
S11302B08093C901E8CF08950E94E00586E791E0A4
S11302C00E94F70561E080E00E94770682E891E0F1
S11302D00E94F70588E08AB940E855E260E070E0E2
S11302E082E00E94690A40E26AEC71E082E00E94C6
S11302F047090E94240B0E9443018CE20E943B07A1
S113030081110E949B008091C1019091C2010197CB
S113031081F70E947400EDCF90919301E0918F01D9
S1130320F0919001992311F0849101C08081282FCC
S113033021542A3110F4805E0895803271F42091A2
S11303408F0130919001A9014F5F5F4F509390014D
S113035040938F012115310509F70895EF92FF921B
S1130360CF93DF930E948C01C0E0D0E01BC09E01BC
S1130370220F331F93E0CC0FDD1F9A95E1F7C20FD4
S1130380D31F992787FD9095C80FD91FE0978091B7
S11303908F019091900101969093900180938F0129
S11303A00E948C01982F90539A3008F3CE01DF916C
S11303B0CF91FF90EF90089510926F0083E28093A5
S11303C0800081E1809381001092820080E197E2B5
S11303D0909389008093880010928B0010928A0079
S11303E0549A7894089580918E01882329F481E0A9
S11303F080938E010E94DC010895A0E0B0E0E3E068
S1130400F2E00C94320D8C015B01E42E0E94F301A6
S11304101092000117FF04C01F77AAE0FA2E02C051
S1130420FF24F394C0908100DD2428EFC222DD2450
S113043088EC3F2D389FC001112480179107D8F410
S1130440E80167E20131160710F0C0E1D7E2BE010E
S11304507695679580E090E06058794687469F4F8F
S11304609E0140E050E00E94E00C890181E090E0B0
S1130470C82AD92A2CC098E2F99E902D112480E034
S1130480892EE4014E01982EE4018016910608F4A9
S1130490E801BE01769567959E0140E050E08F2DFE
S11304A08A3039F480E090E0605E734481449F4F69
S11304B006C080E090E060537D4E8C4E9F4F0E94BA
S11304C0E00C890152E0852E912CC828D9282F2DC3
S11304D02A3039F4CE0105966AE070E00E94CC0C13
S11304E0EB0133E0C83ED30779F0BE0180E090E031
S11304F0950140E050E00E94B00C28EE33E040E06B
S113050050E00E94020D01C0950110926F00C0924C
S113051081001093890000938800409188005091D5
S113052089006E2D603108F06FE080E190E0861B59
S11305309109BA0102C0769567958A95E2F770939E
S11305408B0060938A00309396012093950186B3C3
S11305508FEF86BB81E080936F00CDB7DEB7ECE010
S11305600C944E0D9B018F3F11F0442329F488EE27
S113057093E0B90140E049C0813130F0582F505127
S1130580503618F05FE501C050E0852F6CE00E9402
S1130590C00CA82FB0E0E4EFFFEFAE9FB001AF9F17
S11305A0700DBE9F700D1124650F711D6C307105A7
S11305B040F4FB01EE0FFF1FE65FFE4F6081718187
S11305C002C060E070E0873081F0082E02C0660F40
S11305D0771F0A94E2F7823028F0CB0105966AE08F
S11305E070E00CC0605070480BC0CB01B6E0880FBF
S11305F0991FBA95E1F7029665E070E00E94CC0C71
S1130600403108F04FE0CB01B9010E94FD0108958B
S1130610A0E0B0E0EEE0F3E00C94310DB090010105
S113062080919101882361F060919201662341F0E9
S11306308FEF70E040E00E94B2021092920134C148
S1130640C0ECDDE5AA24A39414E0712E00ED17E0BC
S1130650B4E0EB2EF12CA4EFCA2EA1E0DA2EFFE0D9
S11306608F2E912C0E948C0120918F01309190014A
S11306702F5F3F4F3093900120938F018636F1F125
S11306808736CCF4823609F4AFC083367CF48E33DB
S113069049F18F333CF4813209F487C08C3309F07B
S11306A09BC022C0813609F097C09BC0843601F1FB
S11306B085360CF51BC08F3609F447C0803744F4E7
S11306C08C3611F18D3661F1873609F085C019C079
S11306D0843709F444C0863709F460C0823709F0CE
S11306E07BC039C0B394BECFBA94BCCFEE2435C01E
S11306F0EE2482E07BC0EE2484E078C0EE2485E022
S113070075C0EE2487E072C00E94AE01BC019093D4
S1130710030180930201809104019091050137C087
S11307200E948C018C3619F41092910104C0A0929D
S113073091011092920180918F0190919001019604
S11307409093900180938F018DCF0E94AE01B82EBB
S11307508093010187CFEE24E39480E047C00E9498
S1130760AE01BC01CE010E94CC0CCB01880F991FB5
S113077053E0660F771F5A95E1F7860F971F909302
S113078005018093040160910201709103010E94AC
S1130790CC0C709307016093060164CF0E94AE01F4
S11307A090930901809308015DCF70920101109329
S11307B0050100930401F0920301E0920201D0923A
S11307C00701C092060190920901809208011092DB
S11307D0910144E0B42E46CF1092900110928F0103
S11307E063C0EE2489E002C0EE248BE09CE0B99E55
S11307F0B02C1124B80E0E948C018B3211F083327C
S1130800B9F480918F019091900101969093900199
S113081080938F01B394EFCF80918F0190919001D9
S113082001969093900180938F01BA940E948C0159
S11308308D3291F3C0910601D09107018153883024
S113084058F4C0910401D09105010E94AE01BC018D
S1130850CE010E94CC0CEB018E010BC080918F0164
S11308609091900101969093900180938F01C00F15
S1130870D11F169507950E948C018E3279F38091D1
S11308809101882339F0CE01969587958093920142
S1130890C81BD109EE2011F0BB24BA948B2DBE01E4
S11308A0409108010E94B202CDB7DEB7EDE00C948E
S11308B04D0D1F920F920FB60F920BB60F9211248B
S11308C02F933F934F935F936F937F938F939F9354
S11308D0AF93BF93EF93FF9380919501909196010D
S11308E09C0121503040309396012093950100974C
S11308F011F510926F00789480918100887F816057
S11309008093810080E197E290938900809388002E
S113091010928B0010928A0081E0809300018091F4
S11309208F0190919001009731F080919401882378
S113093011F40E940803FF91EF91BF91AF919F9131
S11309408F917F916F915F914F913F912F910F9074
S11309500BBE0F900FBE0F901F90189510926F0052
S11309609093900180938F0181E080939301109282
S113097092010E94080308950E94AE04089581E044
S113098090E06F9364E06A95F1F76F910197C9F76E
S113099008950F931F93CF93DF9317B13D98289831
S11309A0299AC0E0D0E00E94BF042A9A0E94BF04A2
S11309B006B12A980E94BF042A9A0E94BF042A986A
S11309C0249605FF10C09E0140E050E080919B01F9
S11309D090919C01A0919D01B0919E012817390727
S11309E04A075B0700F39E0140E050E080919B01C1
S11309F090919C01A0919D01B0919E012817390707
S1130A004A075B0728F082E390E0A0E0B0E004C06E
S1130A1080E395E7A0E0B0E080939B0190939C0174
S1130A20A0939D01B0939E0117B9DF91CF911F91BF
S1130A300F91089528B190E08F709070880F991FDE
S1130A40880F991F237C282B28B92A9A0E94BF0457
S1130A502A980E94BF040895A2E0B0E0E2E3F5E022
S1130A600C94390D182F4A8369830E94AA050E94A9
S1130A70C904F7B008B1299869814A81662311F045
S1130A80289A01C0289887B18C6387B9413029F02E
S1130A90812F82958F700E941A05812F8F700E947A
S1130AA01A05F7B808B92296E5E00C94550D60E0F4
S1130AB042E00E942C05089561E042E00E942C056A
S1130AC008950E945C05089560E041E00E942C05B1
S1130AD008953D98459A80E395E7A0E0B0E08093BF
S1130AE09B0190939C01A0939D01B0939E01209A39
S1130AF0219A229A8EE190E00E94FF0B83E00E94EB
S1130B00640586E090E00E94FF0B83E00E94640588
S1130B1082E090E00E94FF0B83E00E94640582E083
S1130B2090E00E94FF0B82E00E94640582E090E066
S1130B300E94FF0B88E20E94570588E00E94570537
S1130B4081E00E94570586E00E9457058CE00E94D0
S1130B505705089580919F01882329F481E08093AB
S1130B609F010E946905089581E00E9457058091C4
S1130B70970190919801009711F1A0E0B0E208C0AC
S1130B80E0919701F0919801E20FF31FB083AF5FFA
S1130B902A2F30E08091220190E001976091230197
S1130BA070E0869FA001879F500D969F500D1124E1
S1130BB0241735072CF310929A0110929901089585
S1130BC00E94B4050895EF92FF92CF93DF93E82E2D
S1130BD0E7017E01F92EE70102C00E945C058991BC
S1130BE08823D9F7DF91CF91FF90EF9008950E9469
S1130BF0E3050895AAE0B0E0E0E0F6E00C94340DDB
S1130C009B01AC011AE06AE0C62ED12CE12CF12C38
S1130C105E010894A11CB11C022FCA01B901A701ED
S1130C2096010E94E00C1150F501E10FF11D005DE9
S1130C30922F990F892F880F880F890F081B008323
S1130C40211531054105510539F708C0F601E10FB9
S1130C50F11D80810E945C051F5F04C06E01089431
S1130C60C11CD11C1A3090F32A96EAE00C94500D62
S1130C70EF92FF920F931F937B018C0197FF0BC0A0
S1130C8010950095F094E094E11CF11C011D111DD8
S1130C908DE20E945C05C801B7010E94FA051F910C
S1130CA00F91FF90EF9008950E9438060895A5E0F3
S1130CB0B0E0EDE5F6E00C943B0D182F80E8898355
S1130CC080EC8A8384E98B8384ED8C83FE01E60FB8
S1130CD0F11D8181810F6D830E94570510939A0144
S1130CE06D81609399012596E3E00C94570D0E9461
S1130CF05706089587B1837D87B988B18C6288B916
S1130D0085E090E06F9364E06A95F1F76F91019745
S1130D10C9F708958091A001882329F481E0809384
S1130D20A0010E947A060895BF92CF92DF92EF92BB
S1130D30FF920F931F93B82EC6B0DC2CD0940E9460
S1130D40390C7B018C010E948A068091AC018130B0
S1130D5021F1813038F0823009F445C0833009F044
S1130D6081C063C02B2D30E04D2D50E0409550954F
S1130D70242335232115310509F474C0CB20C092F6
S1130D80A701E092A801F092A9010093AA0110938F
S1130D90AB0181E08093AC0165C08091A801909182
S1130DA0A901A091AA01B091AB01E81AF90A0A0BB2
S1130DB01B0B8FE0E816F1040105110508F452C07D
S1130DC04091A7018D2D90E080959095242F30E0DF
S1130DD082239323009731F182E08093AC01C422F3
S1130DE0C092A7013FC04091A7018D2D842371F0CB
S1130DF093E09093AC018093A701E092A801F09254
S1130E00A9010093AA011093AB012CC050E08B2DD3
S1130E1090E02D2D30E020953095822393234817C0
S1130E20590701F11092AC011DC08091A801909165
S1130E30A901A091AA01B091AB01E81AF90A0A0B21
S1130E401B0B8FE0E816F1040105110558F08091A1
S1130E50A7018D2119F01092AC0105C092E0909386
S1130E60AC0101C080E01F910F91FF90EF90DF90E3
S1130E70CF90BF9008950E9494060895282F30E0E3
S1130E80F901EE0FFF1F43E0220F331F4A95E1F7EC
S1130E90E20FF31FEC5DFE4F82810895282F30E0AE
S1130EA0F901EE0FFF1F73E0220F331F7A95E1F76C
S1130EB0E20FF31FEC5DFE4F4181282F30E0F90172
S1130EC0EE0FFF1F53E0220F331F5A95E1F7E20F95
S1130ED0F31FEC5DFE4F81E09381491380E0089598
S1130EE0282F30E0F901EE0FFF1FB3E0220F331F6C
S1130EF0BA95E1F7E20FF31FEC5DFE4F4085518593
S1130F004115510509F452C0282F30E0F901EE0FC4
S1130F10FF1F73E0220F331F7A95E1F7E20FF31FEF
S1130F20EC5DFE4F7281282F30E0F901EE0FFF1FB8
S1130F30B3E0220F331FBA95E1F7E20FF31FEC5D24
S1130F40FE4F9481791790F5282F30E0F901EE0FC8
S1130F50FF1F73E0220F331F7A95E1F7E20FF31FAF
S1130F60EC5DFE4F9281490F511DFA016083282FD9
S1130F7030E0F901EE0FFF1F53E0220F331F5A95A3
S1130F80E1F7E20FF31FEC5DFE4F92819F5F282F84
S1130F9030E0F901EE0FFF1FB3E0220F331FBA95C3
S1130FA0E1F7E20FF31FEC5DFE4F9283282F30E050
S1130FB0F901EE0FFF1F73E0220F331F7A95E1F75B
S1130FC0E20FF31FEC5DFE4F4281282F30E0F90160
S1130FD0EE0FFF1F53E0220F331F5A95E1F7E20F84
S1130FE0F31FEC5DFE4F9481491701F5282F30E083
S1130FF0F901EE0FFF1F93E0220F331F9A95E1F7DB
S1131000E20FF31FEC5DFE4F9581992379F0282FB1
S113101030E0F901EE0FFF1FB3E0220F331FBA9542
S1131020E1F7E20FF31FEC5DFE4F128208950F9378
S11310301F93182F823009F475C0882319F4E1EC4A
S1131040F0E002C0E9ECF0E080818F778083812FAB
S113105090E0FC01EE0FFF1F03E0880F991F0A9533
S1131060E1F7E80FF91FEC5DFE4F8085918500974D
S1131070A9F1212F30E0F901EE0FFF1FA3E0220FA9
S1131080331FAA95E1F7E20FF31FEC5DFE4F928147
S1131090212F30E0F901EE0FFF1F63E0220F331F11
S11310A06A95E1F7E20FF31FEC5DFE4F8481981718
S11310B0A8F4112319F4E0ECF0E002C0E8ECF0E04D
S11310C0808187FF0BC0112319F4E6ECF0E002C025
S11310D0EEECF0E06081812F0E947007212F30E058
S11310E0F901EE0FFF1F43E0220F331F4A95E1F78A
S11310F0E20FF31FEC5DFE4F8081882309F059C095
S1131100112319F4E1ECF0E002C0E9ECF0E0808195
S1131110806880834EC080913D01882319F010922D
S11311203A0147C08091400190914101009709F430
S113113040C090913A0180913C019817D0F580917C
S1131140AD018823A9F40E94410C8093AD0110E005
S11311500BC00E943C0CE02FF0E03197E11BF10939
S1131160E255FE4F80831F5F0091AD01101788F395
S1131170A091AD01AA23E9F080913A01E0914001E8
S1131180F0914101E80FF11DA150A093AD01B0E031
S1131190A255BE4F8C91808380913A018F5F8093DA
S11311A03A0190913A0180913C01981709F0BACF25
S11311B0B2CF1F910F910895823051F0882319F412
S11311C0E1ECF0E002C0E9ECF0E090819F779083DD
S11311D0A82FB0E0FD01EE0FFF1F53E0AA0FBB1FC5
S11311E05A95E1F7EA0FFB1FEC5DFE4F71876087AC
S11311F0682F70E0FB01EE0FFF1F93E0660F771F6F
S11312009A95E1F7E60FF71FEC5DFE4F1282682F07
S113121070E0FB01EE0FFF1FA3E0660F771FAA9596
S1131220E1F7E60FF71FEC5DFE4F4483482F50E0D3
S1131230FA01EE0FFF1F63E0440F551F6A95E1F7B3
S1131240E40FF51FEC5DFE4F25838230D9F0282F83
S113125030E0F901EE0FFF1F43E0220F331F4A95E0
S1131260E1F7E20FF31FEC5DFE4F9081992351F4F7
S1131270882319F4E1ECF0E002C0E9ECF0E08081AD
S113128080688083089521E00E94DC0808950E940C
S1131290430908951F920F920FB60F920BB60F9247
S11312A011242F933F934F935F936F937F938F9367
S11312B09F93AF93BF93EF93FF936091C60080E039
S11312C00E947007FF91EF91BF91AF919F918F9111
S11312D07F916F915F914F913F912F910F900BBE32
S11312E00F900FBE0F901F9018951F920F920FB67C
S11312F00F920BB60F9211242F933F934F935F934A
S11313006F937F938F939F93AF93BF93EF93FF93C9
S11313106091CE0081E00E947007FF91EF91BF9130
S1131320AF919F918F917F916F915F914F913F9179
S11313302F910F900BBE0F900FBE0F901F9018951A
S1131340882319F4E1ECF0E002C0E9ECF0E08081DC
S1131350806280830895882319F4E1ECF0E002C0F0
S1131360E9ECF0E080818F7D80830895282F30E0C0
S1131370F901EE0FFF1F93E0220F331F9A95E1F757
S1131380E20FF31FEC5DFE4F2681378121153105F5
S1131390A1F1282F30E0F901EE0FFF1FA3E0220F87
S11313A0331FAA95E1F7E20FF31FEC5DFE4F418175
S11313B0282F30E0F901EE0FFF1F63E0220F331FE7
S11313C06A95E1F7E20FF31FEC5DFE4F9381491735
S11313D0A0F4282F30E0F901EE0FFF1F43E0220FA5
S11313E0331F4A95E1F7E20FF31FEC5DFE4F908146
S11313F0992319F40E94A00908950E94AB09089545
S1131400823031F1282F30E0F901EE0FFF1F53E055
S1131410220F331F5A95E1F7E20FF31FEC5DFE4FE5
S11314209081992349F4882319F4E1ECF0E002C097
S1131430E9ECF0E098E908C0882319F4E1ECF0E065
S113144002C0E9ECF0E098E190830E94B609789438
S11314500895882319F0813041F404C080E00E948B
S1131460000A089581E00E94000A0895A0E0B0E017
S1131470ECE3FAE00C94370DD82E7A018B010E942C
S1131480290A8D2D823001F1DD2019F4C4ECD0E05D
S113149002C0CCECD0E0C801B70128EF3FEF4FEF1A
S11314A05FEF0E94B00C6050734D8E4C9E4FA801AC
S11314B09701E4E0220F331F441F551FEA95D1F72B
S11314C00E94E00C39832883CDB7DEB7E7E00C94A3
S11314D0530D0E94360A0895282F30E0F901EE0FCB
S11314E0FF1F73E0220F331F7A95E1F7E20FF31F1A
S11314F0EC5DFE4F468157814115510509F465C0E5
S1131500282F30E0F901EE0FFF1F93E0220F331F65
S11315109A95E1F7E20FF31FEC5DFE4F6181282FEE
S113152030E0F901EE0FFF1FA3E0220F331FAA954D
S1131530E1F7E20FF31FEC5DFE4F9381691708F0AA
S113154044C0882319F4E0ECF0E002C0E8ECF0E0D9
S1131550908195FF3AC0882319F4A6ECB0E002C04C
S1131560AEECB0E0282F30E0F901EE0FFF1F63E08E
S1131570220F331F6A95E1F7E20FF31FEC5DFE4F74
S11315809181490F511DFA0190819C93282F30E0DD
S1131590F901EE0FFF1F93E0220F331F9A95E1F735
S11315A0E20FF31FEC5DFE4F91819F5F282F30E027
S11315B0F901EE0FFF1FA3E0220F331FAA95E1F7F5
S11315C0E20FF31FEC5DFE4F91830E94B60908956C
S11315D01F93182F823031F00E94AB09812F0E9493
S11315E06C0A1DC080913E0190913F010097B9F0B3
S11315F03091390120913B01321788F406C0809163
S113160039018F5F80933901EDCF20913901820F29
S1131610911DFC0180810E94480C882381F71F9151
S1131620089580E00E94E80A81E00E94E80A82E0CE
S11316300E94E80A80E00E94170881E00E941708CF
S113164082E00E94170808950E94110B0895282F24
S113165030E0F901EE0FFF1F93E0220F331F9A953C
S1131660E1F7E20FF31FEC5DFE4F77836683282FCB
S113167030E0F901EE0FFF1FA3E0220F331FAA95FC
S1131680E1F7E20FF31FEC5DFE4F1182282F30E0EB
S1131690F901EE0FFF1F63E0220F331F6A95E1F794
S11316A0E20FF31FEC5DFE4F4383823011F00E9482
S11316B0B60908950E94270B08951F920F920FB642
S11316C00F920BB60F9211242F933F934F935F9376
S11316D06F937F938F939F93AF93BF93EF93FF93F6
S11316E080E00E946C0AFF91EF91BF91AF919F91AE
S11316F08F917F916F915F914F913F912F910F90B7
S11317000BBE0F900FBE0F901F9018951F920F9253
S11317100FB60F920BB60F9211242F933F934F9352
S11317205F936F937F938F939F93AF93BF93EF9345
S1131730FF9381E00E946C0AFF91EF91BF91AF91FA
S11317409F918F917F916F915F914F913F912F91D5
S11317500F900BBE0F900FBE0F901F9018956F93B4
S113176064E06A95F1F76F910197C9F708952F9294
S11317708F939F932FB68091B7019091B8010196F2
S11317808093B7019093B80190E08091B901891FCB
S11317908093B9019091BF019C5F9093BF018091A8
S11317A0BE0180519742C0F09093BF018093BE0167
S11317B08091BA019091BB0101968093BA019093F4
S11317C0BB0190E08091BC01891F8093BC01809192
S11317D0BD01891F8093BD012FBE9F918F912F90D2
S11317E01895CF93DF93EC0105C088EE93E00E9437
S11317F0AF0B21972097C9F7DF91CF9108950E94ED
S1131800F10B0895E0E7F0E080818E7F8083A0EB08
S1131810B0E08C9183608C93A1EBB0E08C91807FDD
S11318208C938C9182608C93B89A80818160808340
S1131830789408958091C001882329F481E08093ED
S1131840C0010E94020C08950E941A0CE0E7F0E027
S113185080818E7F80832091BA013091BB014091B9
S1131860BC015091BD01808181608083B901CA01AE
S113187008950E94240C08958FEF64E00E948B0C5D
S1131880089583E867E00E948B0C0E943C0C089545
S11318901F93182F982F9095991F9927991F85E8C2
S11318A0891B65E00E948B0C812F8F7765E00E9475
S11318B08B0C1F9108956F9364E06A95F1F76F9113
S11318C00197C9F70895A1E0B0E0E9E6FCE00C94C3
S11318D03B0D182F249909C02C9907C02C9A8EE12E
S11318E090E069830E945B0C698184B1806A84B949
S11318F02698812F837080656C7A862B8CBD81E05D
S113190012FF80E08DBD81E090E00E94F10B2196F2
S1131910E3E00C94570D0F931F93082F162F0CB46C
S113192006FC04C080E064E00E94630C0CB404FC78
S113193003C08CB580618CBD0EBD03C00CB404FE25
S11319400BC00DB407FEFACF112321F0812F90E0D4
S11319500E945B0C8EB501C080E01F910F91089529
S1131960DB018F939F930E94210DBF91AF91A29FA2
S1131970800D911DA39F900DB29F900D1124089589
S1131980991B79E004C0991F961708F0961B881FCD
S11319907A95C9F780950895AA1BBB1B51E107C02E
S11319A0AA1FBB1FA617B70710F0A61BB70B881FEB
S11319B0991F5A95A9F780959095BC01CD0108957A
S11319C0A1E21A2EAA1BBB1BFD010DC0AA1FBB1F3F
S11319D0EE1FFF1FA217B307E407F50720F0A21BB1
S11319E0B30BE40BF50B661F771F881F991F1A941E
S11319F069F760957095809590959B01AC01BD0148
S1131A00CF010895052E97FB1EF400940E94190D32
S1131A1057FD07D00E94E00C07FC03D04EF40C9451
S1131A20190D50954095309521953F4F4F4F5F4F7D
S1131A30089590958095709561957F4F8F4F9F4F36
S1131A4008950E94630DA59F900DB49F900DA49FCF
S1131A50800D911D112408952F923F924F925F9211
S1131A606F927F928F929F92AF92BF92CF92DF92AA
S1131A70EF92FF920F931F93CF93DF93CDB7DEB70F
S1131A80CA1BDB0B0FB6F894DEBF0FBECDBF0994A3
S1131A902A88398848885F846E847D848C849B84FA
S1131AA0AA84B984C884DF80EE80FD800C811B8108
S1131AB0AA81B981CE0FD11D0FB6F894DEBF0FBE37
S1131AC0CDBFED010895A29FB001B39FC001A39FB4
S1131AD0700D811D1124911DB29F700D811D112463
S10B1AE0911D0895F894FFCF55
S1131AE801040400D007F4010F009C01B501CF01E3
S1131AF8EA0107022602470269028E02B502DE02E3
S1131B080A030210000000000000000000000000AA
S1131B1800000000000000000100000000000000B8
S1131B28000052583A2000677265656E204C45449F
S1131B3800726564204C454400706C6179206E6FB6
S1131B487465204300706C6179206E6F746520445D
S1131B580054583A200053656E64207365726961B5
S1111B686C006F72207072657373204200006F
S9030000FC
