S01400004C6564426C696E6B526174652E737265637F
S11300000C9446000C9465000C9465000C946500F7
S11300100C9465000C9465000C9465000C946500C8
S11300200C9465000C9465000C9465000C944C07CA
S11300300C9465000C9465000C9465000C946500A8
S11300400C9465000C9465000C9465000C94650098
S11300500C94DF040C94F2060C9465000C94650077
S11300600C9465000C9465000C9465000C94650078
S11300700C940A050C941B070C9465000C94650001
S11300800C9465000C9465000C94650011241FBE4B
S1130090CFEFD0E4DEBFCDBF11E0A0E0B1E0E0E2FD
S11300A0F1E100E00BBF02C007900D92A438B10744
S11300B0D9F721E0A4E8B1E001C01D92A33FB20743
S11300C0E1F70E9425010C948E080C94000082E054
S11300D00E94E302811103C00E94B906F8CF08957B
S11300E0CF93DF9380E291E00E947F0288E08BB996
S11300F0CEEAD1E08881998188579C4E0E9494076A
S11301001BB88881998188579C4E0E94940710924D
S1130110AE011092AF011092B0011092B101DF91C3
S1130120CF910895CF93C82F0E9468028FE291E087
S11301300E947F028C2F0E94E90161E080E00E940E
S1130140A202C734F1F0B0F4CB3269F1CD3209F038
S11301503FC088E08AB980E690EFAFEFBFEF8093AD
S1130160AE019093AF01A093B001B093B10187E5C4
S113017091E029C0C73629F0C23759F0C23541F59C
S113018008C088B190E1892788B93C9A84E391E05A
S113019007C08BB192E089278BB9519A8EE391E025
S11301A0CF910C947F0288E08AB980ED97E0A0E0BB
S11301B0B0E08093AE019093AF01A093B001B093EF
S11301C0B10186E491E00E947F02CF910C9470000B
S11301D00E94670080E28C278093D30141E063EDA5
S11301E071E082E00E94EF0688E691E00E947F02BF
S11301F08091D301CF910C94E90182E00E94D30253
S1130200E091B2018E1789F0F0E0ED54FE4F808149
S11302100E9492008091B2018F3119F41092B201C0
S1130220ECCF8F5F8093B201E8CF089584E20E94FF
S1130230D002882319F00E947000F8CF84E20E9453
S1130240D002811101C01BB808950E9468028DE696
S113025091E00E947F0261E080E00E94A20289E7AF
S113026091E00E947F0240E855E260E070E082E0A5
S11302700E94FE0540E263EB71E082E00E94DC0430
S11302800E94B9060E94FD000E941601F9CF81E088
S113029090E06F9364E06A95F1F76F910197C9F765
S11302A008950F931F93CF93DF9317B13D98289828
S11302B0299AC0E0D0E00E9447012A9A0E9447018F
S11302C006B12A980E9447012A9A0E9447012A9857
S11302D0249605FF10C09E0140E050E08091880103
S11302E090918901A0918A01B0918B012817390757
S11302F04A075B0700F39E0140E050E080918801CB
S113030090918901A0918A01B0918B012817390736
S11303104A075B0728F082E390E0A0E0B0E004C065
S113032080E395E7A0E0B0E0809388019093890191
S1130330A0938A01B0938B0117B9DF91CF911F91DC
S11303400F91089528B190E08F709070880F991FD5
S1130350880F991F237C282B28B92A9A0E944701C9
S11303602A980E9447010895A2E0B0E0EAEBF1E088
S11303700C945508182F4A8369830E9432020E9404
S11303805101F7B008B1299869814A81662311F0B7
S1130390289A01C0289887B18C6387B9413029F025
S11303A0812F82958F700E94A201812F8F700E94ED
S11303B0A201F7B808B92296E5E00C94710860E050
S11303C042E00E94B401089561E042E00E94B40159
S11303D008950E94E401089560E041E00E94B401A0
S11303E008953D98459A80E395E7A0E0B0E08093B6
S11303F0880190938901A0938A01B0938B01209A7C
S1130400219A229A8EE190E00E94940783E00E9450
S1130410EC0186E090E00E94940783E00E94EC01E6
S113042082E090E00E94940783E00E94EC0182E065
S113043090E00E94940782E00E94EC0182E090E048
S11304400E94940788E20E94DF0188E00E94DF0195
S113045081E00E94DF0186E00E94DF018CE00E94BF
S1130460DF01089580918C01882329F481E0809331
S11304708C010E94F101089581E00E94DF018091C6
S1130480840190918501009711F1A0E0B0E208C0C9
S1130490E0918401F0918501E20FF31FB083AF5F17
S11304A02A2F30E08091000190E0019760910101D2
S11304B070E0869FA001879F500D969F500D1124D8
S11304C0241735072CF310928701109286010895A2
S11304D00E943C020895EF92FF92CF93DF93E82E9F
S11304E0E7017E01F92EE70102C00E94E40189912F
S11304F08823D9F7DF91CF91FF90EF9008950E9460
S11305006B020895A5E0B0E0E8E8F2E00C94570827
S1130510182F80E8898380EC8A8384E98B8384EDB7
S11305208C83FE01E60FF11D8181810F6D830E9492
S1130530DF01109387016D81609386012596E3E0C6
S11305400C9473080E948202089587B1837D87B951
S113055088B18C6288B985E090E06F9364E06A9515
S1130560F1F76F910197C9F7089580918D01882360
S113057029F481E080938D010E94A5020895A1E0F1
S1130580B0E0E5ECF2E00C94580889830E94B502CF
S113059096B19095898189232196E2E00C947408A0
S11305A00E94BF020895282F30E0F901EE0FFF1FCB
S11305B043E0220F331F4A95E1F7E20FF31FEE5F8A
S11305C0FE4F82810895282F30E0F901EE0FFF1FBE
S11305D073E0220F331F7A95E1F7E20FF31FEE5F0A
S11305E0FE4F4181282F30E0F901EE0FFF1F53E049
S11305F0220F331F5A95E1F7E20FF31FEE5FFE4F10
S113060081E09381491380E00895282F30E0F901B7
S1130610EE0FFF1FB3E0220F331FBA95E1F7E20F8D
S1130620F31FEE5FFE4F408551854115510509F4D6
S113063052C0282F30E0F901EE0FFF1F73E0220FA4
S1130640331F7A95E1F7E20FF31FEE5FFE4F7281DD
S1130650282F30E0F901EE0FFF1FB3E0220F331F04
S1130660BA95E1F7E20FF31FEE5FFE4F948179171D
S113067090F5282F30E0F901EE0FFF1F73E0220FF1
S1130680331F7A95E1F7E20FF31FEE5FFE4F92817D
S1130690490F511DFA016083282F30E0F901EE0F54
S11306A0FF1F53E0220F331F5A95E1F7E20FF31FA8
S11306B0EE5FFE4F92819F5F282F30E0F901EE0F2D
S11306C0FF1FB3E0220F331FBA95E1F7E20FF31FC8
S11306D0EE5FFE4F9283282F30E0F901EE0FFF1FEB
S11306E073E0220F331F7A95E1F7E20FF31FEE5FF9
S11306F0FE4F4281282F30E0F901EE0FFF1F53E037
S1130700220F331F5A95E1F7E20FF31FEE5FFE4FFE
S11307109481491701F5282F30E0F901EE0FFF1FEE
S113072093E0220F331F9A95E1F7E20FF31FEE5F78
S1130730FE4F9581992379F0282F30E0F901EE0FCF
S1130740FF1FB3E0220F331FBA95E1F7E20FF31F47
S1130750EE5FFE4F128208950F931F93182F82307D
S113076009F475C0882319F4E1ECF0E002C0E9EC67
S1130770F0E080818F778083812F90E0FC01EE0F81
S1130780FF1F03E0880F991F0A95E1F7E80FF91F8F
S1130790EE5FFE4F808591850097A9F1212F30E00F
S11307A0F901EE0FFF1FA3E0220F331FAA95E1F713
S11307B0E20FF31FEE5FFE4F9281212F30E0F9012B
S11307C0EE0FFF1F63E0220F331F6A95E1F7E20F7C
S11307D0F31FEE5FFE4F84819817A8F4112319F4D8
S11307E0E0ECF0E002C0E8ECF0E0808187FF0BC0B1
S11307F0112319F4E6ECF0E002C0EEECF0E06081C5
S1130800812F0E940503212F30E0F901EE0FFF1F15
S113081043E0220F331F4A95E1F7E20FF31FEE5F27
S1130820FE4F8081882309F059C0112319F4E1ECAB
S1130830F0E002C0E9ECF0E08081806880834EC083
S113084080911B01882319F01092180147C08091F0
S11308501E0190911F01009709F440C09091180166
S113086080911A019817D0F580919A018823A9F4F0
S11308700E949C0780939A0110E00BC00E94970786
S1130880E02FF0E03197E11BF109E556FE4F80833C
S11308901F5F00919A01101788F3A0919A01AA236F
S11308A0E9F080911801E0911E01F0911F01E80F19
S11308B0F11DA150A0939A01B0E0A556BE4F8C91B2
S11308C08083809118018F5F8093180190911801A3
S11308D080911A01981709F0BACFB2CF1F910F91E6
S11308E00895823051F0882319F4E1ECF0E002C05D
S11308F0E9ECF0E090819F779083A82FB0E0FD01B0
S1130900EE0FFF1F53E0AA0FBB1F5A95E1F7EA0F42
S1130910FB1FEE5FFE4F71876087682F70E0FB015D
S1130920EE0FFF1F93E0660F771F9A95E1F7E60F2E
S1130930F71FEE5FFE4F1282682F70E0FB01EE0F8F
S1130940FF1FA3E0660F771FAA95E1F7E60FF71FD5
S1130950EE5FFE4F4483482F50E0FA01EE0FFF1F75
S113096063E0440F551F6A95E1F7E40FF51FEE5F4E
S1130970FE4F25838230D9F0282F30E0F901EE0FA5
S1130980FF1F43E0220F331F4A95E1F7E20FF31FE5
S1130990EE5FFE4F9081992351F4882319F4E1EC22
S11309A0F0E002C0E9ECF0E0808180688083089583
S11309B021E00E94710408950E94D80408951F92B2
S11309C00F920FB60F920BB60F9211242F933F93F1
S11309D04F935F936F937F938F939F93AF93BF9343
S11309E0EF93FF936091C60080E00E940503FF919E
S11309F0EF91BF91AF919F918F917F916F915F9193
S1130A004F913F912F910F900BBE0F900FBE0F90FF
S1130A101F9018951F920F920FB60F920BB60F925C
S1130A2011242F933F934F935F936F937F938F93EF
S1130A309F93AF93BF93EF93FF936091CE0081E0B8
S1130A400E940503FF91EF91BF91AF919F918F9108
S1130A507F916F915F914F913F912F910F900BBEBA
S1130A600F900FBE0F901F901895882319F4E1EC96
S1130A70F0E002C0E9ECF0E08081806280830895B8
S1130A80882319F4E1ECF0E002C0E9ECF0E08081A5
S1130A908F7D80830895282F30E0F901EE0FFF1F2A
S1130AA093E0220F331F9A95E1F7E20FF31FEE5FF5
S1130AB0FE4F2681378121153105A1F1282F30E021
S1130AC0F901EE0FFF1FA3E0220F331FAA95E1F7F0
S1130AD0E20FF31FEE5FFE4F4181282F30E0F90152
S1130AE0EE0FFF1F63E0220F331F6A95E1F7E20F59
S1130AF0F31FEE5FFE4F93814917A0F4282F30E0D7
S1130B00F901EE0FFF1F43E0220F331F4A95E1F76F
S1130B10E20FF31FEE5FFE4F9081992319F40E94B8
S1130B20350508950E9440050895823031F1282F3B
S1130B3030E0F901EE0FFF1F53E0220F331F5A95E7
S1130B40E1F7E20FF31FEE5FFE4F9081992349F422
S1130B50882319F4E1ECF0E002C0E9ECF0E098E954
S1130B6008C0882319F4E1ECF0E002C0E9ECF0E0FD
S1130B7098E190830E944B0578940895882319F096
S1130B80813041F404C080E00E949505089581E01D
S1130B900E9495050895A0E0B0E0E1EDF5E00C9425
S1130BA05308D82E7A018B010E94BE058D2D823008
S1130BB001F1DD2019F4C4ECD0E002C0CCECD0E0AB
S1130BC0C801B70128EF3FEF4FEF5FEF0E940B081A
S1130BD06050734D8E4C9E4FA8019701E4E0220FA4
S1130BE0331F441F551FEA95D1F70E941B08398310
S1130BF02883CDB7DEB7E7E00C946F080E94CB05DD
S1130C000895282F30E0F901EE0FFF1F73E0220F43
S1130C10331F7A95E1F7E20FF31FEE5FFE4F468133
S1130C2057814115510509F465C0282F30E0F901B9
S1130C30EE0FFF1F93E0220F331F9A95E1F7E20FA7
S1130C40F31FEE5FFE4F6181282F30E0F901EE0FB4
S1130C50FF1FA3E0220F331FAA95E1F7E20FF31F52
S1130C60EE5FFE4F9381691708F044C0882319F49E
S1130C70E0ECF0E002C0E8ECF0E0908195FF3AC0CF
S1130C80882319F4A6ECB0E002C0AEECB0E0282F43
S1130C9030E0F901EE0FFF1F63E0220F331F6A9566
S1130CA0E1F7E20FF31FEE5FFE4F9181490F511DF3
S1130CB0FA0190819C93282F30E0F901EE0FFF1F79
S1130CC093E0220F331F9A95E1F7E20FF31FEE5FD3
S1130CD0FE4F91819F5F282F30E0F901EE0FFF1F37
S1130CE0A3E0220F331FAA95E1F7E20FF31FEE5F93
S1130CF0FE4F91830E944B0508951F93182F823055
S1130D0031F00E944005812F0E9401061DC0809190
S1130D101C0190911D010097B9F0309117012091A9
S1130D201901321788F406C0809117018F5F8093F0
S1130D301701EDCF20911701820F911DFC018081D5
S1130D400E94A307882381F71F91089580E00E94E1
S1130D507D0681E00E947D0682E00E947D0680E09F
S1130D600E94AC0381E00E94AC0382E00E94AC03C9
S1130D7008950E94A6060895282F30E0F901EE0F89
S1130D80FF1F93E0220F331F9A95E1F7E20FF31F41
S1130D90EE5FFE4F77836683282F30E0F901EE0F74
S1130DA0FF1FA3E0220F331FAA95E1F7E20FF31F01
S1130DB0EE5FFE4F1182282F30E0F901EE0FFF1F86
S1130DC063E0220F331F6A95E1F7E20FF31FEE5F32
S1130DD0FE4F4383823011F00E944B0508950E9418
S1130DE0BC0608951F920F920FB60F920BB60F9286
S1130DF011242F933F934F935F936F937F938F931C
S1130E009F93AF93BF93EF93FF9380E00E940106FB
S1130E10FF91EF91BF91AF919F918F917F916F91CE
S1130E205F914F913F912F910F900BBE0F900FBE8A
S1130E300F901F9018951F920F920FB60F920BB63A
S1130E400F9211242F933F934F935F936F937F934C
S1130E508F939F93AF93BF93EF93FF9381E00E948F
S1130E600106FF91EF91BF91AF919F918F917F9177
S1130E706F915F914F913F912F910F900BBE0F9007
S1130E800FBE0F901F9018956F9364E06A95F1F769
S1130E906F910197C9F708952F928F939F932FB65F
S1130EA08091A4019091A50101968093A40190934F
S1130EB0A50190E08091A601891F8093A6019091DD
S1130EC0AC019C5F9093AC018091AB01805197423F
S1130ED0C0F09093AC018093AB018091A7019091F5
S1130EE0A80101968093A7019093A80190E08091B6
S1130EF0A901891F8093A9018091AA01891F809368
S1130F00AA012FBE9F918F912F901895CF93DF93B5
S1130F10EC0105C088EE93E00E94440721972097D6
S1130F20C9F7DF91CF9108950E94860708958FEF46
S1130F3064E00E94E607089583E867E00E94E607FC
S1130F400E94970708951F93182F982F9095991F23
S1130F509927991F85E8891B65E00E94E607812F80
S1130F608F7765E00E94E6071F9108956F9364E010
S1130F706A95F1F76F910197C9F70895A1E0B0E080
S1130F80E4ECF7E00C945708182F249909C02C9925
S1130F9007C02C9A8EE190E069830E94B6076981AC
S1130FA084B1806A84B92698812F837080656C7AB5
S1130FB0862B8CBD81E012FF80E08DBD81E090E046
S1130FC00E9486072196E3E00C9473080F931F9305
S1130FD0082F162F0CB406FC04C080E064E00E94C5
S1130FE0BE070CB404FC03C08CB580618CBD0EBD7F
S1130FF003C00CB404FE0BC00DB407FEFACF1123DA
S113100021F0812F90E00E94B6078EB501C080E0E8
S11310101F910F910895DB018F939F930E943D08C8
S1131020BF91AF91A29F800D911DA39F900DB29F80
S1131030900D11240895A1E21A2EAA1BBB1BFD01D9
S11310400DC0AA1FBB1FEE1FFF1FA217B307E407A3
S1131050F50720F0A21BB30BE40BF50B661F771FFB
S1131060881F991F1A9469F76095709580959095DB
S11310709B01AC01BD01CF0108950E947F08A59F8B
S1131080900DB49F900DA49F800D911D112408957F
S11310902F923F924F925F926F927F928F929F9284
S11310A0AF92BF92CF92DF92EF92FF920F931F9372
S11310B0CF93DF93CDB7DEB7CA1BDB0B0FB6F89423
S11310C0DEBF0FBECDBF09942A88398848885F8463
S11310D06E847D848C849B84AA84B984C884DF80D4
S11310E0EE80FD800C811B81AA81B981CE0FD11DB8
S11310F00FB6F894DEBF0FBECDBFED010895A29FD9
S1131100B001B39FC001A39F700D811D1124911DD7
S1131110B29F700D811D1124911D0895F894FFCF85
S113112002100000000000000000000000000000A9
S113113000000000000001000000000000000000AA
S1131140696E20626C696E6B206C6967687400520A
S1131150583A2000677265656E204C4544007265FC
S113116064204C454400496E6320726174652062BA
S11311707920323030300044656320726174652018
S1131180627920343030300054583A200053656E70
S1131190642073657269616C006F7220707265738C
S10711A07320420072
S9030000FC
