:100000000C9446000C9465000C9465000C946500FB
:100010000C94C5060C94C5060C94C5060C94C50634
:100020000C9465000C9465000C9465000C9492058A
:100030000C9465000C9465000C9465000C946500AC
:100040000C9465000C9465000C9465000C9465009C
:100050000C9465000C9465000C9465000C9465008C
:100060000C9465000C9465000C9465000C9465007C
:100070000C9465000C9465000C9465000C9465006C
:100080000C9465000C9465000C94650011241FBE4F
:10009000CFEFD0E4DEBFCDBF11E0A0E0B1E0E6E6F7
:1000A000F1E100E00BBF02C007900D92A831B1074B
:1000B000D9F721E0A8E1B1E001C01D92A236B20754
:1000C000E1F70E9467000C94B1080C9400000E94B4
:1000D0000A022AE14BE168E189E10E94B80760E089
:1000E00070E080E090E00E94C30400E010E0C0E017
:1000F000D0E08CE20E948705883089F0803219F0C8
:10010000843091F406C0012B11F42A960FC02A976F
:100110001AC0012B11F42A9709C02A9614C081E055
:100120000827D195C195D109012B69F4CB30D105B0
:100130002CF0C33681E0D80794F402C0CAE0D0E0C6
:1001400000E010E015C0D7FF05C0CE398EEFD8070C
:100150005CF002C0C6EFDFEF01E010E009C000E094
:1001600010E0C3E6D1E004C001E010E0CDE9DEEF2D
:1001700082E390E00E94DA05BE01CE010E94C30432
:1001800061E080E00E9493038AE091E00E94130303
:10019000BE01882777FD8095982F0E9470038FE01D
:1001A00091E00E94130360E080E00E94930382E1EB
:1001B00091E00E9413030E94C207BC01882777FDCB
:1001C0008095982F0E9470038FE091E00E941303A6
:1001D00090CF80917C0090E025E0959587952A95B9
:1001E000E1F78170089580917A0090E036E095956E
:1001F00087953A95E1F781700895EF92FF920F93FA
:100200001F93CF93DF9380911801882309F454C082
:10021000E0901901F0901A010E94E900C0910001DC
:10022000D0910101970140E050E0882309F17E015F
:10023000F694E79400E010E0CA01B9012FEF30E036
:1002400040E050E00E941A08E60EF71E081F191F32
:100250009E0140E050E0C801B7010E943E08C9017C
:10026000DA018F3F9105A105B10521F118F131C0E7
:100270007E01F694E79400E010E0CA01B9012FEF87
:1002800033E040E050E00E941A08E60EF71E081F17
:10029000191F9E0140E050E0C801B7010E943E08CE
:1002A000C901DA01803020E0920721E0A20720E0B6
:1002B000B20790F49C0112C00E94E900882321F04B
:1002C0002091790030E00AC02091780030917900C7
:1002D00005C02FEF30E002C02FEF3FEFC901CDB7CF
:1002E000DEB7E6E00C949308803200F191E0909341
:1002F0001801803819F40E94490613C0813819F496
:100300000E9450060EC0823819F40E94570609C098
:10031000833819F40E945E0604C08438F9F40E9400
:10032000650690931A01809319010895109218019F
:1003300097E890937A0090917C00292F206466239F
:1003400011F0906C02C0922F9F77907E982B909323
:100350007C0080917A00806480937A00089560E048
:100360000E9474010E94F3008823E1F70E94FD00BF
:100370000895A0E0B0E0EFEBF1E00C9475086B019C
:10038000803218F00E94AF013AC060E00E94740110
:100390000E94F3008823E1F7E601EE24FF248701A1
:1003A00080917A00806480937A000E94F300882311
:1003B000E1F70E94FD00A0E0B0E0E80EF91E0A1F80
:1003C0001B1F219769F7C6019695879520E4C216F1
:1003D000D10440F48E0D9F1D6C2D70E00E942A0800
:1003E000CB010DC0BC0180E090E06E0D7F1D801F31
:1003F000911F960140E050E00E943E08C901CDB730
:10040000DEB7E8E00C94910880E864E170E00E94B7
:10041000B90108950E940402089581E090E06F936D
:1004200064E06A95F1F76F910197C9F708950F930A
:100430001F93CF93DF9317B13D982898299AC0E076
:10044000D0E00E940D022A9A0E940D0206B12A985D
:100450000E940D022A9A0E940D022A98249605FFF6
:1004600010C09E0140E050E080911F01909120015A
:10047000A0912101B0912201281739074A075B0793
:1004800000F39E0140E050E080911F019091200117
:10049000A0912101B0912201281739074A075B0773
:1004A00028F082E390E0A0E0B0E004C080E395E7AC
:1004B000A0E0B0E080931F0190932001A093210160
:1004C000B093220117B9DF91CF911F910F91089539
:1004D00028B190E08F709070880F991F880F991F36
:1004E000237C282B28B92A9A0E940D022A980E9460
:1004F0000D020895A2E0B0E0E0E8F2E00C94780884
:10050000182F4A8369830E94F5020E941702F7B0F0
:1005100008B1299869814A81662311F0289A01C09F
:10052000289887B18C6387B9413029F0812F829553
:100530008F700E946802812F8F700E946802F7B846
:1005400008B92296E5E00C94940860E042E00E942D
:100550007A02089561E042E00E947A02089560E024
:1005600041E00E947A0208953D98459A80E395E71C
:10057000A0E0B0E080931F0190932001A09321019F
:10058000B0932201209A219A229A8EE190E00E9453
:10059000DA0583E00E94AF0286E090E00E94DA056F
:1005A00083E00E94AF0282E090E00E94DA0583E0DF
:1005B0000E94AF0282E090E00E94DA0582E00E9491
:1005C000AF0282E090E00E94DA0588E20E94A50274
:1005D00088E00E94A50281E00E94A50286E00E94B8
:1005E000A5028CE00E94A502089580912301882332
:1005F00029F481E0809323010E94B4020895EF92D0
:10060000FF92CF93DF93E82EE7017E01F92EE701F9
:1006100002C00E94AA0289918823D9F7DF91CF9165
:10062000FF90EF9008950E94FF020895AAE0B0E0C5
:10063000ECE1F3E00C9473089B01AC011AE06AE072
:10064000C62ED12CE12CF12C5E010894A11CB11C0A
:10065000022FCA01B901A70196010E943E0811505C
:10066000F501E10FF11D005D922F990F892F880F81
:10067000880F890F081B008321153105410551059D
:1006800039F708C0F601E10FF11D80810E94AA022E
:100690001F5F04C06E010894C11CD11C1A3090F376
:1006A0002A96EAE00C948F08EF92FF920F931F9323
:1006B0007B018C0197FF0BC010950095F094E0949E
:1006C000E11CF11C011D111D8DE20E94AA02C8014E
:1006D000B7010E9416031F910F91FF90EF900895AC
:1006E0000E9454030895A5E0B0E0E9E7F3E00C941C
:1006F0007A08182F80E8898380EC8A8384E98B83C9
:1007000084ED8C83FE01E60FF11D8181810F6D83E5
:100710000E94A50210931E016D8160931D01259614
:10072000E3E00C9496080E9473030895FC01118283
:10073000108213821282158214821682683068F445
:1007400089E290E0918380838BE290E093838283BF
:100750008AE290E09583848323C0603180F483E251
:1007600090E09183808385E290E09383828384E2AA
:1007700090E09583848370E06850704011C06831C8
:10078000C0F486E290E09183808388E290E09383D6
:10079000828387E290E09583848370E060517040AB
:1007A00081E090E002C0880F991F6A95E2F7868386
:1007B00008956032C0F480E290E09183808382E209
:1007C00090E09383828381E290E0958384832FE19C
:1007D00030E0261B310981E090E002C0880F991FAC
:1007E0002A95E2F786830895FC01A481B58186816C
:1007F000662321F09C91982B9C9308959C91809561
:1008000089238C930895FC016F3F31F4A281B38159
:100810008C91968189270CC0A281B3818681662341
:1008200021F09C91982B9C9308959C91809589230D
:100830008C930895A7E0B0E0E0E2F4E00C9478082F
:10084000282FF62E8E010F5F1F4FC801622F0E94C6
:100850009603C8016F2D0E940304C80161E00E9445
:10086000F4032796E5E00C94940883E08093B000AD
:1008700082E08093B100E4EBF0E01082808180930D
:10088000B30087E160E00E941A0486E160E00E9404
:100890001A0487E060E00E941A0486E060E00E948B
:1008A0001A04089580912401882329F481E080931B
:1008B00024010E9435040895CF93DF93EC010E9438
:1008C0005204D7FF05C0D095C195DF4F91E001C01C
:1008D00090E0CF3FD10519F014F0CFEFD0E0C093F6
:1008E000B300209731F48091B0008F778093B000EF
:1008F0000EC08091B00080688093B000992319F0F9
:1009000087E161E002C087E160E00E941A04DF91A4
:10091000CF910895CF93DF93EC010E945204D7FF4B
:1009200005C0D095C195DF4F91E001C090E0CF3F69
:10093000D10519F014F0CFEFD0E0C093B4002097A8
:1009400031F48091B0008F7D8093B0000EC0809113
:10095000B00080628093B000992319F086E161E0D5
:1009600002C086E160E00E941A04DF91CF910895F1
:10097000CF93DF93EB010E945C04CE010E948A04B6
:10098000DF91CF9108950E94B804089587B1837DC7
:1009900087B988B18C6288B985E090E06F9364E094
:1009A0006A95F1F76F910197C9F708958091250134
:1009B000882329F481E0809325010E94C6040895CC
:1009C000BF92CF92DF92EF92FF920F931F93B82EB8
:1009D000C6B0DC2CD0940E9414067B018C010E94CE
:1009E000D60480913101813021F1813038F082309C
:1009F00009F445C0833009F081C063C02B2D30E07D
:100A00004D2D50E040955095242335232115310577
:100A100009F474C0CB20C0922C01E0922D01F09219
:100A20002E0100932F011093300181E0809331015A
:100A300065C080912D0190912E01A0912F01B09160
:100A40003001E81AF90A0A0B1B0B8FE0E816F104D3
:100A50000105110508F452C040912C018D2D90E044
:100A600080959095242F30E082239323009731F1D5
:100A700082E080933101C422C0922C013FC040919A
:100A80002C018D2D842371F093E09093310180939C
:100A90002C01E0922D01F0922E0100932F01109372
:100AA00030012CC050E08B2D90E02D2D30E02095B2
:100AB0003095822393234817590701F11092310191
:100AC0001DC080912D0190912E01A0912F01B09118
:100AD0003001E81AF90A0A0B1B0B8FE0E816F10443
:100AE0000105110558F080912C018D2119F010920B
:100AF000310105C092E09093310101C080E01F9167
:100B00000F91FF90EF90DF90CF90BF9008950E94DB
:100B1000E00408956F9364E06A95F1F76F9101978F
:100B2000C9F708952F928F939F932FB68091330129
:100B3000909134010196809333019093340190E0B9
:100B400080913501891F8093350190913B019C5F15
:100B500090933B0180913A0180519742C0F090936D
:100B60003B0180933A0180913601909137010196C3
:100B7000809336019093370190E080913801891F6E
:100B80008093380180913901891F809339012FBEEC
:100B90009F918F912F901895CF93DF93EC0105C013
:100BA00088EE93E00E948A0521972097C9F7DF918C
:100BB000CF9108950E94CC050895E0E7F0E0808190
:100BC0008E7F8083A0EBB0E08C9183608C93A1EB4F
:100BD000B0E08C91807F8C938C9182608C93B89ADA
:100BE0008081816080837894089580913C0188237E
:100BF00029F481E080933C010E94DD0508950E9464
:100C0000F505E0E7F0E080818E7F8083209136015A
:100C100030913701409138015091390180818160D4
:100C20008083B901CA0108950E94FF0508958FEFDE
:100C300064E00E94F5070895CF93DF930E94FF05BB
:100C40009B01AC018091060190910701A0910801E0
:100C5000B0910901281739074A075B07B9F081E805
:100C600067E00E94F507C6E4D1E00E941706899369
:100C700081E0C335D807C9F70E94FF0560930601DC
:100C8000709307018093080190930901DF91CF9140
:100C900008950E941C0680914F0190915001089583
:100CA0000E941C06809147019091480108950E947E
:100CB0001C068091490190914A0108950E941C06EA
:100CC00080914B0190914C0108950E941C068091E7
:100CD0004D0190914E010895A7E0B0E0E2E7F6E003
:100CE0000C947B08682FCE0101960E94960389819F
:100CF0009A818032910531F480916B009F81892B1C
:100D000080936B0089819A818332910531F48091BF
:100D10006C009F81892B80936C0089819A81863237
:100D2000910531F480916D009F81892B80936D0036
:100D300089819A818932910531F4809173009F8174
:100D4000892B80937300ED81FE8190818F81809546
:100D5000892380838FEF809368002796E2E00C94CC
:100D60009708A7E0B0E0E7EBF6E00C947B08682F6B
:100D7000CE0101960E949603E981FA8190818F81CC
:100D800089232796E2E00C9497081F920F920FB6E2
:100D90000F920BB60F921124FF920F931F932F9374
:100DA0003F934F935F936F937F938F939F93AF93F3
:100DB000BF93EF93FF9380915A010E94B106F82EE2
:100DC00080915C010E94B106182F80915B010E9406
:100DD000B106082F80915D010E94B10640915F012C
:100DE00060915E015091610190916001F41651F0A3
:100DF00020915801309159012F5F3F4F3093590195
:100E000020935801061751F0209158013091590153
:100E1000215030403093590120935801151751F05B
:100E200020915601309157012F5F3F4F309357016A
:100E300020935601891751F02091560130915701A6
:100E4000215030403093570120935601EF2DF0E0B0
:100E5000772767FD7095E617F70759F0602F70E068
:100E6000552747FD50956417750719F021E0209329
:100E70005501412F50E0292F332727FD3095421788
:100E8000530769F0482F50E020916101332727FD77
:100E900030954217530719F091E090935401F09266
:100EA0005E0100935F011093600180936101FF91E7
:100EB000EF91BF91AF919F918F917F916F915F91D2
:100EC0004F913F912F911F910F91FF900F900BBE6B
:100ED0000F900FBE0F901F901895A3E0B0E0E3E7CE
:100EE000F7E00C947B0880935A0160935B01409378
:100EF0005C0120935D01F8942B834A8369830E94EF
:100F00006C066981862F0E946C064A81842F0E949C
:100F10006C062B81822F0E946C0610925901109250
:100F200058011092570110925601109255011092DB
:100F3000540180915A010E94B10680935E01809114
:100F40005B010E94B10680935F0180915C010E9469
:100F5000B1068093600180915D010E94B10680938B
:100F600061018FEF8BBB78942396E2E00C94970895
:100F70000E946D070895F894809156019091570151
:100F8000789408950E94BB0708956F9364E06A9572
:100F9000F1F76F910197C9F70895A1E0B0E0E3ED93
:100FA000F7E00C947A08182F249909C02C9907C0EF
:100FB0002C9A8EE190E069830E94C507698184B113
:100FC000806A84B92698812F837080656C7A862B1D
:100FD0008CBD81E012FF80E08DBD81E090E00E9439
:100FE000CC052196E3E00C9496080F931F93082FED
:100FF000162F0CB406FC04C080E064E00E94CD070C
:101000000CB404FC03C08CB580618CBD0EBD03C064
:101010000CB404FE0BC00DB407FEFACF112321F06F
:10102000812F90E00E94C5078EB501C080E01F911E
:101030000F910895DB018F939F930E946008BF91E9
:10104000AF91A29F800D911DA39F900DB29F900D17
:1010500011240895AA1BBB1B51E107C0AA1FBB1F87
:10106000A617B70710F0A61BB70B881F991F5A9534
:10107000A9F780959095BC01CD010895A1E21A2EA3
:10108000AA1BBB1BFD010DC0AA1FBB1FEE1FFF1F2C
:10109000A217B307E407F50720F0A21BB30BE40B7C
:1010A000F50B661F771F881F991F1A9469F76095C3
:1010B0007095809590959B01AC01BD01CF0108957D
:1010C0000E94A208A59F900DB49F900DA49F800D33
:1010D000911D112408952F923F924F925F926F922B
:1010E0007F928F929F92AF92BF92CF92DF92EF92B8
:1010F000FF920F931F93CF93DF93CDB7DEB7CA1B39
:10110000DB0B0FB6F894DEBF0FBECDBF09942A8863
:10111000398848885F846E847D848C849B84AA840B
:10112000B984C884DF80EE80FD800C811B81AA8198
:10113000B981CE0FD11D0FB6F894DEBF0FBECDBF63
:10114000ED010895A29FB001B39FC001A39F700D50
:10115000811D1124911DB29F700D811D1124911DBF
:061160000895F894FFCF92
:101166008813FFFFFFFFFFFFFFFF7370643D002042
:08117600200045636E743D008A
:00000001FF
